:020000040800F2
:10000000200A0020D9000008C12E0008A9270008F6
:1000100000000000000000000000000000000000E0
:10002000000000000000000000000000893C000803
:100030000000000000000000B1340008433D00084B
:10004000EB000008EB000008EB000008EB000008E4
:10005000EB000008EB000008EB000008CD040008EE
:1000600000000000EB000008EB000008EB000008B7
:10007000EB000008EB000008EB000008DD3D000885
:10008000EB000008EB000008EB000008EB000008A4
:1000900000000000EB000008EB000008EB00000887
:1000A000EB000008EB000008EB000008EB00000884
:1000B000FB430008EB000008000000000000000007
:1000C0000448854600F004F90048004751510008F3
:1000D000C046C046200A0020044880470448004724
:1000E000FEE7FEE7FEE7FEE7FEE7FEE7DB3D000892
:1000F000C100000830B50B46014600202022012433
:1001000009E00D46D5409D4205D31D469540491B4B
:100110002546954040191546521E002DF1DC30BD94
:1001200070B500242546002801DA01244042002948
:1001300001DA01254942FFF7DDFFAC4200D0404221
:10014000002C00D0494270BDF0B51FB40646002017
:1001500082B005464024019100901BE0019922469F
:100160000F46304600F0A2F8049A059B801A994188
:1001700010D310461946224600F088F8361A8F41EF
:100180000197224601200021009F00F07FF83818D7
:100190004D4100902046641E0028DFDC019B009842
:1001A0002946324607B0F0BD0549064A0868504363
:1001B000054A801808604008704701490860704788
:1001C000740100206D4EC6413930000070B5194CE5
:1001D00000683C21FFF78EFF21603C21FFF78AFF7A
:1001E00061601821FFF786FF0546A1600721001D09
:1001F000FFF780FFA1611048A90008180F49FFF719
:1002000079FF443060618808E0613B2803D3217D99
:10021000890700D0401C0021094B0A462161995CE6
:10022000814203D8401A521C2261F8E7401CE0606A
:10023000204670BDF00300206C0B0000B5050000E7
:10024000CC56000803460B439B0703D009E008C9BE
:10025000121F08C0042AFAD203E00B780370401C76
:10026000491C521EF9D27047D2B201E00270401C04
:10027000491EFBD270470022F6E710B513460A4626
:1002800004461946FFF7F0FF204610BD10B5202A9E
:1002900004DB0146203A9140002010BD914020230C
:1002A0009C1A0346E3401943904010BD10B5202A24
:1002B00004DB0846203AD040002110BD0B46D34055
:1002C000D0402024A21A91400843194610BD0000D6
:1002D000064C0125064E05E0E36807CC2B430C3C99
:1002E00098471034B442F7D3FFF7EEFED05F000812
:1002F000F05F000870B58C180578401C6B075B0F29
:1003000001D10378401C2A1106D10278401C03E079
:1003100006780E70401C491C5B1EF9D12B0705D4D2
:100320000023521E0DD40B70491CFAE70378401CC1
:10033000CB1A921C03E01D780D70491C5B1C521EE9
:10034000F9D5A142D8D3002070BDF8B506460021EA
:10035000202424020034240203342402C034202543
:100360002D0200352D0200352D023C354800205C61
:100370006854491C0829F9DB022005F06EF868462C
:1003800003F04DFC002E0FD068460088000708D40B
:1003900008200002003000025B300002283004F028
:1003A000ADF8022E0DD014E008200002003000024B
:1003B0005B300002283004F0A1F8684603F02FFCFF
:1003C0000EE0002041000919097C2954401C08282E
:1003D000F8DB684603F023FC6846008800070AD46F
:1003E00008200002003000025B300002443004F0BC
:1003F00085F80120F8BD0020F8BD70B5054602F073
:1004000069FE00281CD002F082FD002818D00721C8
:100410002024240200342402003424023C34605C92
:100420004A00A852491EFAD502F09AFD002808D0C9
:1004300007214A00605C52191082491EF9D502203A
:1004400070BD012070BD10B52021090200310902E4
:100450000131090270310968002909D001460820DC
:100460000002003000025F300002B83004F046F8AD
:1004700010BD10B520200002003000020130000243
:100480004430406807281FD20821090200310902C0
:100490005F310902F031095C49008F4400BF02F06E
:1004A000FDFE10BD02F05DFE10BD02F03FFD10BD6F
:1004B00002F05AFD10BD02F02AFD10BD02F0CFFD82
:1004C00010BD02F070FD10BD002010BD10B5102051
:1004D00000F032FC402000F02FFCFF20013000F043
:1004E0002BFC10BD10B520200002003000020130AE
:1004F000000270300068002808D008200002003098
:1005000000025F300002843003F0F8FF10BD1FB519
:1005100000230C46DB43022203A9029301920091BF
:1005200001230246AA2120200002003000020130EF
:100530000002E83000F0CAFD69468989218004B0D4
:1005400010BD03B583B00023DB43022204A902934C
:100550000192009101230246AA21202000020030CE
:10056000000201300002E83000F05CFE05B000BD82
:10057000F8B500270646044640360097307D0D4604
:1005800001280FD001203075206802F0A8FA002859
:100590000AD0A06D20210843A065012700203075F6
:1005A0003846F8BD0220F8BD686802287ED00122D6
:1005B0002169D207914202D0121D914206D12068D2
:1005C0002968826A4903490B0A436EE0C206D20ECB
:1005D0000F20216E904081432868430302D0C30757
:1005E0004BD102E04000C00E48E0830701D5012056
:1005F00044E0430701D5022040E0030701D5032072
:100600003CE0C30601D5042038E0830601D505206F
:1006100034E0430601D5062030E0030601D507206B
:100620002CE0C30501D5082028E0830501D5092069
:1006300024E0430501D50A2020E0030501D50B2065
:100640001CE0C30401D50C2018E0830401D50D2063
:1006500014E0430401D50E2010E0030401D50F205F
:100660000CE0C30301D5102008E0830301D511205D
:1006700004E0400301D5122000E000209040014337
:1006800021666968E2698808401C904210D8206899
:100690002B68826A9C46C906C90E0F238B409A4379
:1006A00063469B001B0F8B401A4300E054E08262BC
:1006B0002168AB6828684A690002824318404001FB
:1006C000400902434A612868002800DB66E74022AF
:1006D0001202013212022732120208321168072375
:1006E0009B051940B0231B0410331B0298421ED1F6
:1006F0000B021CD4C0020143104602F0F4F903219E
:1007000009020D31090240312020000200300002B0
:100710000030000220300068FFF7ECFC0C21401C88
:10072000484300E0401E00900028FBD136E7B82384
:100730001B0440331B02984203D1CB0101D4800239
:1007400008E0B4231B0420331B029842BED14802A8
:10075000BCD45802014334E001212069C907884212
:1007600002D0091D884206D120682968826A49039F
:10077000490B8A43826228680028A7DA40221202C5
:1007800001321202273212020832116807239B0538
:100790001940B0231B0410331B02984201D1C00240
:1007A0000EE0B8231B0440331B02984201D18002A3
:1007B00006E0B4231B0420331B02984286D140027A
:1007C0008143104602F08FF9E8E6FEB500270446A3
:1007D00001973E4602970097002805D02546A06D58
:1007E0002035002802D007E00120FEBD204600F0A1
:1007F00028F9E6655420065520688168C900C90FAC
:100800001ED18168802212061732914301221207FD
:1008100011438160032109020D310902403120207A
:100820000002003000020030000220300068FFF7B4
:1008300061FC4000801C00E0401E00900028FBD1BD
:1008400020688168C900C90F08D1A16D1022114329
:10085000A165E16D01221143E165174602F03FF900
:10086000A16DC90601D4002804D0A06D1021084351
:10087000A065C7E0A06DFF21013188430221084334
:10088000A065206802F027F900287AD1217EA068AF
:1008900089030843617ECA03A17E4B031A431043B8
:1008A000226B002A01D0012212031043E268104398
:1008B0002269002A02DA5200520801E001225205A0
:1008C00010432A7B52001043019A10432A78012AD0
:1008D00009D1002926D0A16D20221143A165E16D27
:1008E00001221143E165616A002906D0FF23C1336B
:1008F0001940A26A0143104608432268D1680123C7
:100900001B02FD331B02FE3399430143D160616832
:10091000029A890F8907E06C0A4310432A7F012A53
:1009200004D00CE0012109040843DCE7636C226C6D
:10093000491C1A43A36C0B43114619430843226810
:100940001169E0231B0403331B02FD339943014368
:100950001161032160688907884212D09907884293
:100960000FD0490088420CD0402109020131090210
:10097000273109028B680F229204934310400343EE
:100980008B600021626B206802F0B4F80721090235
:10099000FF310902FF3109020431A26B206802F025
:1009A000A9F80F202169C04300291CD0012252055B
:1009B00091420AD121688A6A227F9200121FD206D0
:1009C000D20E9040226E1043886220684069616BAD
:1009D0004007400F88420BD1E665A06D800880007B
:1009E000401CA0650FE021688A6A02438A62ECE736
:1009F000A06D0221884310210843A065E06D01210C
:100A00000843E06501273846FEBD4021090210B5C4
:100A100001310902006824310902884210D14020C6
:100A20000002023000021030000240300168012252
:100A300012059143016005200221000700F0C9F86A
:100A400010BD10B586B0044614216846FFF713FCAC
:100A5000402109020131090224312068090288423B
:100A600026D1402000020230000210300002403047
:100A70000268012109050A430260006808400590E8
:100A8000402000020230000210300002416B0122BF
:100A900011434163406B694610400590022000906D
:100AA00003200190002002900520000700F094F937
:100AB00006B010BDF0B5002808D0014620314A79B3
:100AC000022A05D00422C263002008710120F0BD73
:100AD000026813680E24A3431360426C1468FF235A
:100AE00001339C4314600268146864086400146055
:100AF00040221202023212045568066C1C24264061
:100B000001242746B7403D435560826CC56C556053
:100B1000026D002A05D015689D431560826D406DF9
:100B200042604C7100200871F0BDF8B50024024607
:100B300020325179022903D00421C163012430E01D
:100B400001680B680E25AB430B6001680B685B08FE
:100B50005B000B60416C0B68FF250135AB430B60FC
:100B600040210902023109044D68066C1C231E4015
:100B700001231F46B7403D434D60816CC56C4D60FD
:100B8000016D002906D00E681D02AE430E60416D56
:100B9000856D4D60537100211171816B002900D06A
:100BA00088472046F8BD70B5044600F0E1F90546D7
:100BB000601C08D02020000200300002003000023B
:100BC00014300078241800F0D3F9401BA042FAD367
:100BD00070BDF0B5002372E001249C4022460A401B
:100BE0006CD040252D0202352D029E081835B60026
:100BF0002D0275192F6EAC469D07EE0E0F25B540E0
:100C0000AE463D4005273F07B84201D1002718E016
:100C100050273F0404373F02B84201D1012710E0BA
:100C200050273F0408373F02B84201D1022708E0AD
:100C300050273F040C373F02B84201D1032700E0A0
:100C40000527B740AF421ED1402636020236360293
:100C50001836360280363568954335607568954399
:100C6000756040263602023636021836360275683E
:100C70009543756035689543356065462D6E7246BF
:100C800095436246156605685E000322B24015432F
:100C90000560DD08AD002D182E6AAC465D07EF0E2D
:100CA0000F25BD40AE4365462E628568954385603D
:100CB0004568A5434560C4689443C4605B1C0A460C
:100CC000DA4089D1F0BD10B5044604F051F9102C7A
:100CD0001DD0402C23D0E01FF93807D00820000297
:100CE0000030000258300002A43022E02020000230
:100CF00000300002003000020C300021017008209A
:100D0000000200300002583000028C3011E0082050
:100D1000000200300002583000025C3009E04168F7
:100D200000208847082000020030000258300002EE
:100D3000743003F0E3FB10BD70B540252D02023581
:100D40002D02183504462D02E868204203D0EC60DD
:100D5000204600F008F82869204203D02C61204684
:100D6000FFF7B1FF70BD10B5044604F001F9102C77
:100D70001DD0402C23D0E01FF93807D008200002F6
:100D800000300002583000024C3022E020200002E7
:100D900000300002003000020C30012101700820F8
:100DA00000020030000258300002383011E0082004
:100DB00000020030000258300002103009E04168A3
:100DC000012088470820000200300002583000024D
:100DD000243003F093FB10BDF0B500230324B6E0EC
:100DE0002A4601259D402A4073D00E79B607B60FDA
:100DF000012E01D0022E16D186682746B4465E0029
:100E0000B646B7406646BE43B446CF687646B7405E
:100E10006646374387604668AE430D79ED06ED0FB1
:100E20009D40354345600D79ED43AD0708D0C56859
:100E30005F002646BE40B5438E68BE402E43C66066
:100E40000D79AD07AD0F022D0ED1DD08AD002D18C7
:100E5000AC462D6A5E07F60E0F27B740BD430F69FB
:100E6000B7402F4365462F6205685F002646BE40A7
:100E7000B5430E79B607B60FBE402E4306604D68E7
:100E8000AD03AD0F62D040252D0202352D029E0824
:100E90001835B6002D027519AC462D6E9E07F60E5C
:100EA0000F27B740BD4305273F07B84201D10027B0
:100EB00019E050273F0404373F02B84201D101270F
:100EC00011E050273F0408373F02B84202D1022701
:100ED00009E03BE050273F040C373F02B84201D104
:100EE000032700E00527B7402F4340252D02023598
:100EF0002D02183566462D0237662D684E689543DB
:100F0000F60200D5154340273F0202373F0218374B
:100F10003F023D607D684E689543B60200D515439B
:100F20007D6040252D0202352D0218352D028035B9
:100F30006E684F689643BF0300D516436E602E68F7
:100F40004F689643FF0300D516432E605B1C0A686A
:100F50001546DA4000D043E7F0BD0069084000D0F4
:100F600001207047002A01D081617047816270477B
:100F7000202000020030000200300002143080689F
:100F8000704770B5024640325378202B1CD113783D
:100F9000012B19D001231370242454700468256890
:100FA0009D432560046825681E03B54325600468D9
:100FB00025680D4325600068016819430160202001
:100FC00050700020107070BD022070BD70B50246D8
:100FD00040325378202B1BD11378012B18D00124D9
:100FE00014702423537003681D68A5431D600568B1
:100FF0002B680F263602B3430902194329600068A3
:10100000016821430160202050700020107070BDE5
:10101000022070BD70B5040006D0254640356878C2
:101020000026002802D005E0012070BD2E70204669
:1010300000F09EF924206870206801684908490082
:1010400001600F21606809068843216808612168F2
:101050008A680120C00382438A60E168012909D0BF
:101060002122A1689202114322689160E16802295D
:1010700003D006E0A1680143F6E701212268C90216
:10108000516021684A6802231B0480331B021A4303
:101090004A602168CA688243CA606169206908435E
:1010A000A169090208432168C860216AE069084310
:1010B00021680860206801680122114301606664AC
:1010C000202068702663AE70002070BDFFB5054615
:1010D00004464035687883B0202878D10C980028E1
:1010E00014D00D98002811D0287801286FD0012045
:1010F0002870FFF73DFF0746012200901923D10316
:10110000204601F073FC002877D103E00120400263
:10111000606472E0222068704020A8700026666437
:101120000C9860620D98608566630E980090019738
:1011300004A90EC9204601F0DEFB002801D02E7064
:101140005BE0618D8020000424300002FF2905D976
:10115000FF22228501231B06009006E0618D218578
:101160000090208D0123C2B25B062046049901F055
:1011700024FC00970022042120460E9B01F036FC3F
:1011800000283AD12068406A616A0870606A401C91
:101190006062208D401E81B22185608D401E608579
:1011A000608D00281FD000291DD1009700228021CA
:1011B00020460E9B01F01AFC00281ED1608DFF28EE
:1011C00006D9FF22228501231B06009607E027E0AF
:1011D000608D20850096208D0123C2B25B062046DB
:1011E000049901F0EAFB608D0028C2D13A462046FE
:1011F0000E9901F022FC002802D0012007B0F0BDBA
:1012000020682021C16120684268FE231B04E83366
:101210001B021A4042606970AE702E700020EDE72C
:101220000220EBE7FFB5054604464035687883B0F9
:10123000202872D10C98002814D00D98002811D0C5
:101240002878012869D001202870FFF791FE074611
:10125000012200901923D103204601F0C7FB00288A
:1012600071D103E00120400260646CE021206870CD
:101270004020A870002666640C9860620D98608516
:1012800066630E980090019704A90EC9204601F0EC
:1012900063FB002801D02E7055E0608DFF2805D932
:1012A000FF22228501231B06009606E0608D208523
:1012B0000096208D0123C2B25B062046049901F0FE
:1012C0007CFB3A4620460E9901F0DDFB00283AD11E
:1012D000606A216800788862606A401C6062608D84
:1012E000401E6085208D401E80B22085618D0029C2
:1012F0001FD000281DD100970022802120460E9B80
:1013000001F074FB00281ED1608DFF2806D9FF2252
:10131000228501231B06009607E027E0608D2085CB
:101320000096208D0123C2B25B062046049901F08D
:1013300044FB608D0028C4D13A4620460E9901F046
:101340007CFB002802D0012007B0F0BD20682021DE
:10135000C16120684268FE231B04E8331B021A4067
:1013600042606970AE702E700020EDE70220EBE75E
:1013700010B586B0044614216846FEF77CFF402174
:101380000904583120680902884223D140242402EC
:101390000234240210342402616B01200143616392
:1013A000616B02900140059103210020C902039066
:1013B0000091062012210490019105206946000742
:1013C000FFF70AFDE16B012080050143E163E16B5A
:1013D0000140059106B010BD20200002003000023F
:1013E00000300002143081680278891881607047EB
:1013F0004020000210B5023000020024203000021C
:101400000168821511430160032000F008F80028EC
:1014100001D0012401E000F02EF8204610BD70B587
:1014200005460024202636020036360200363602F3
:101430001436317800291BD07D20C000FEF75AFEFB
:10144000014620200002003000020030000220305F
:101450000068FEF74FFE00F0ADFC002808D1042D17
:1014600006D200222946401E00F02EF8756000E0EA
:101470000124204670BD40200002023000021030DE
:1014800008B5000240300168012211430160006884
:101490001040009040200002023000021030000294
:1014A000C26B01040A43C263C06B0840009008BDD0
:1014B000002808DBC106C90E01208840E02109048C
:1014C000E13109020860704710B503F027F810BD3C
:1014D00010B54024240470342402216803225202EF
:1014E000914301432160C11FFF39FA3918D12020EF
:1014F00000020030000200300002203000680621A7
:1015000048430F210902423109024031FEF7F2FD42
:10151000401C02E0002805D0401E61694905F9D44D
:10152000002010BD032010BDF8B540252D02023566
:1015300004462D02006810352D0200268003403538
:1015400000286CDA40200002023000020027103030
:101550000002C06BC0000DD4402000020230000227
:1015600010300002C26B01040A43C263C06B084022
:1015700001270090402000047030000201688215AD
:1015800011430160FFF7F4FC009005E0FFF7F0FC69
:101590000099401A02282AD8402000047030000226
:1015A0000068C005F2D5E8690321090208400FD0A0
:1015B000616A81420CD0E86903210902EA69884323
:1015C000012109040A43EA61EA698A43EA61E861A0
:1015D000C00711D0FFF7CCFC00900AE0FFF7C8FC71
:1015E0000099411A132000028830814201D9032654
:1015F00009E0E8698007F1D5E86903210902884319
:10160000616A0843E861002F09D0402000020230DF
:10161000000210300002C26B01048A43C2632078CA
:10162000C00705D068696168800880000843686168
:101630002078C00606D56869032189028843A1681D
:10164000084368612088800506D5686903218904FC
:1016500088436169084368612088400506D5686948
:10166000032109058843A169084368612078800641
:1016700006D56869032109038843E1680843686166
:101680002088400415D56869E16980008008084316
:1016900068610121E069890788420AD1402000027F
:1016A0000230000210300002C1680122120411430E
:1016B000C1602068800214D5686901218905226A09
:1016C000884310436861206A88420AD140200002A2
:1016D0000230000210300002C168012212061143DC
:1016E000C1602088000516D56869032189038843F5
:1016F00021690843686101212069890388420AD170
:10170000402000020230000210300002C1680122B5
:1017100012041143C1603046F8BDF8B50F4606000B
:1017200055D040252D0202352D0220352D02286886
:101730004007400FB84215D22868C008C00038439F
:101740002860FFF715FC044607E0FFF711FC011BBA
:10175000132000028830814275D828684007400F66
:10176000B842F2D1402424020234306824021034FA
:101770008107240200290DDA400704D5A06807215B
:1017800009030843A060A0680F2109028843B168DB
:101790000843A0603078C00739D0706801280FD0A6
:1017A000022810D0002814D0402109020231090279
:1017B00010310902403103280ED0C969890704E0BD
:1017C0002168890301E021688901002906DB0120E5
:1017D000F8BD21684905F8E7096AEFE7A168C9087B
:1017E000C9000143A160FFF7C3FB009008E0FFF7C9
:1017F000BFFB0099411A132000028830814222D891
:10180000A068382108407168C9008842EFD1286873
:101810004007400FB84223D94020000202300002A6
:10182000203000020168C908C90039430160FFF790
:101830009FFB054609E0FFF79BFB411B13200002BD
:101840008830814201D90320F8BD402000020230D7
:1018500000022030000200684007400FB842EAD181
:101860003078400706D5A068072109038843F1684E
:101870000843A06000F040F8A1683C2289091140AB
:101880000822120200321202563212026C32515CED
:10189000C906C90EC84020210902003109020031E1
:1018A00009022031086020200002003000020030D0
:1018B000000218300068FFF7B2FDF8BD20200002DA
:1018C00000300002003000022030402109020231C5
:1018D000090210310902006889684904490F89002A
:1018E000082212020032120256321202AC32515C4D
:1018F000C906C90EC840704710B5402424020234FE
:10190000240210342402A068F42212028006243239
:10191000400F1202002816D0A0688006410F501018
:1019200001290FD0A1688906490F022912D0A068A9
:101930008006400F042823D0A0688006400F0328AB
:1019400021D0002010BD206801218004400F81407B
:10195000104612E0E1688B07E1689B0F4906490FCA
:10196000491C032B00D01046FEF7C4FBE168490474
:10197000490E4843E168490F491CFEF7BBFB10BD07
:101980000120C00310BD7D20000210BDF8B5040089
:1019900074D040252D02023520782D021035C00765
:1019A00038272D02002847D0A868E9683840890701
:1019B000890F102802D008280BD001E0032908D095
:1019C00001206268000482420AD12968014329602B
:1019D00016E0286880032FD560680028D8D02BE057
:1019E000052301211B0489049A4203D12A680A4372
:1019F0002A60EAE72A6882432A60286888432860C8
:101A0000606800280CD0FFF7B3FA064604E0FFF741
:101A1000AFFA801B642878D828688003F7D50BE0DC
:101A2000FFF7A6FA064604E0FFF7A2FA801B642837
:101A3000F1D828688003F7D42078800777D5A96883
:101A4000E868394082070720920FC002102902D0AF
:101A5000002914D001E0022A11D0E168002955D0F4
:101A6000296881432069014329602868FF210131E9
:101A700008432860FFF77CFA06463AE0B2E02A689D
:101A8000520502D5E268002AA8D06A687F231B02AB
:101A90009A4363691B021A436A60002917D12968B7
:101AA0008143206901432960286801218004400F97
:101AB0008140F420000224300002FEF71BFB2021AD
:101AC000090200310902003109022031086020209A
:101AD0000002003000020030000218300068FFF7FA
:101AE0009EFC00287ED122E0FFF742FA801B0228EC
:101AF00091D828684005F7D568687F210902884396
:101B0000616909020843686011E0AFE02968FF20BD
:101B1000013081432960FFF72BFA064604E0FFF706
:101B200027FA801B0228E3D828684005F7D440260E
:101B3000360202363602207810363602000740366A
:101B400000282FDAA8688006400F03280AD0A06971
:101B5000002817D0306A012108433062FFF708FAE5
:101B600007460BE0306A80071CD5A06900288BD09F
:101B700018E0FFF7FDF9C01B022877D8306A80070C
:101B8000F7D50FE0306A400840003062FFF7F0F907
:101B9000074604E0FFF7ECF9C01B022866D8306A5C
:101BA0008007F7D42078400778D5A86800278006FA
:101BB000400F04281CD0E86BC00008D4E96B01205A
:101BC00000070143E963E96B0140012700914020D0
:101BD0000004703000020168C9051DD40168821537
:101BE000114300E088E00160FFF7C2F900900CE0CB
:101BF000F069800752D5A06800287DD04EE0FFF73D
:101C0000B7F90099401A022830D8402000047030FB
:101C100000020068C005F2D5A168012910D0042097
:101C2000052912D0F16949084900F161F169814340
:101C3000F161A06800281AD0FFF79AF9009011E02E
:101C4000F06901210843F061F3E7F1690143F161B3
:101C5000F6E7FFF78DF90099411A1320000288304A
:101C6000814270D8F0698007F3D510E06BE0FFF790
:101C70007FF9009008E0FFF77BF90099411A1320E3
:101C80000002883081425ED8F0698007F3D4002FCB
:101C900004D0E86B012109078843E863E069002864
:101CA0004BD0A9688906490F02295AD00126360669
:101CB000022806D02868B0432860FFF759F9044687
:101CC00043E02868B0432860FFF752F9074604E074
:101CD000FFF74EF9C01B022835D828688001F7D4D9
:101CE000616A206AA26A0843E16A1202114308434A
:101CF000216B0843616B00E058E00843E96811225A
:101D00001202C1321202803212028C321140084398
:101D1000E860286830432860E86801210907084323
:101D2000E860FFF725F9044604E0FFF721F9001BFE
:101D3000022808D828688001F7D539E0FFF718F99C
:101D4000001B022801D90320F8BD28688001F5D4C2
:101D5000E868112109020131090403318843E86070
:101D600026E00128F0D0E868226A8107890F9142B5
:101D70001CD17021626A0140914217D17F21A26A71
:101D8000090201401202914210D11F214904E26A66
:101D9000014091420AD107214906226B014091423C
:101DA00004D1400F616B4007884201D00120F8BD8B
:101DB0000020F8BDFF21090610B50131401EC842C0
:101DC00001D9012010BDE0242404E0342402606124
:101DD0000321081F02F0A2FB0020A0610720206160
:101DE000002010BD704770477047F0B503462033A0
:101DF0001A7F012A30D001221A7702225A7704680A
:101E00006268A56840273F0201373F022C373F0236
:101E1000BC4205D116460F22120596434A6832434A
:101E20007026B2430E68164366600068B84209D057
:101E300001229207904205D040221204043212027D
:101E4000904204D180228968954329438160012012
:101E5000587700201877F0BD0220F0BD70B504005F
:101E600005D025462035687F002802D006E00120F5
:101E700070BD00202877204600F016F80220687711
:101E8000211D206801F0B5FF012240342272AA779B
:101E9000EA7722706270A270E27022716271A271A0
:101EA000E2716A77002070BD08B5006801218907DA
:101EB000884214D14020000202300002103000029B
:101EC000C16B01221143C163C06B1040002200901E
:101ED00011460F20FFF7F8FA0F20FFF7E9FA08BDC7
:101EE000014620314A7F012A01D001207047022299
:101EF0004A770168CB6801221343CB604021090275
:101F00000131090200682C310902884208D091078A
:101F1000884205D04021090404310902884209D1D0
:101F2000816801231B0407331940062905D0DB1FF4
:101F3000994202D001681143016000207047F8B552
:101F4000054604462035287F0026012818D00127A1
:101F50002F77022068772268906831231B02FF33B5
:101F60001B027733984390600868502838D00EDC05
:101F700020284FD006DC00284CD010281ED149E084
:101F80000220F8BD302845D0402817D13AE060281B
:101F90002ED0702818D001221203801A0FD0904240
:101FA0000CD1CB684A688968206801F06FFF20680F
:101FB0008168012292031143816000E001266F775E
:101FC000002028773046F8BDCB684A6889682068C9
:101FD00001F05CFF21688868772210438860EEE793
:101FE000CA684968206801F066FF5021206806E051
:101FF000CA684968206801F06FFF6021206801F01D
:1020000050FFDCE7CA684968206801F054FF4021AE
:102010002068F4E7226801461046F0E7704770B583
:102020000446006801690025C9438907002915DBBA
:10203000C168C943890711D4E91E016101202077D5
:10204000206880698007204602D0FFF7E7FF04E0A0
:1020500000F0AAF8204600F0A8F82577206801696A
:10206000C943490717D4C168C943490713D4042198
:10207000C943016102202077206880698005800FB4
:10208000204602D0FFF7CAFF04E000F08DF820469A
:1020900000F08BF8257720680169C943090716D439
:1020A000C168C943090712D40821C943016104204A
:1020B00020772068C0698007204602D0FFF7AEFF76
:1020C00004E000F071F8204600F06FF825772068F2
:1020D0000169C943C90617D4C168C943C90613D4E5
:1020E0001021C9430161082020772068C06980055C
:1020F000800F204602D0FFF791FF04E000F054F873
:10210000204600F052F8257720680169C943C907C5
:1021100008D1C168C943C90704D1891E016120469D
:1021200000F044F820680169C943090609D4C16870
:10213000C943090605D48021C94301612046FFF740
:1021400052FE20680169C943C9050ED4C168C9435C
:1021500009060AD4FF210902FF310902FE310902F2
:10216000FF3101612046FFF73DFE20680169C94348
:10217000490609D4C168C943490605D44021C94369
:102180000161204600F01FF820680169C9438906F3
:1021900009D4C168C943890605D42021C943016116
:1021A0002046FFF721FE70BD7047704720210902CD
:1021B000003109020031090208310878002801D0F5
:1021C000401E08707047704710B5014680310A788C
:1021D000012A15D001220A7024224A60026813687D
:1021E00014686408640014600122520793430022BB
:1021F000426600680360202048600A70104610BDE7
:10220000022010BD7047704770B504460546803403
:10221000207801281AD001202070242060602868CE
:102220000668026852085200026028688268072324
:102230005B069A430A438260284601F060FE2868E4
:102240000660202060600020207070BD022070BDFC
:1022500070B50446054680342078012819D0012045
:1022600020702420606028680668026852085200C6
:10227000026028688268D200D2080A438260284639
:1022800001F03DFE2868066020206060002020707C
:1022900070BD022070BD704770477047F8B5036885
:1022A0000446D96918689A6808252D020F350E462C
:1022B0002E4025468035002E7ED010273F06013760
:1022C00016463E4004273F0401373F0220370740AF
:1022D000374372D0CF0706D0C70504D501271F6248
:1022E000EB683B43EB608B0708D5D30706D0276824
:1022F00002233B62EB6804273B43EB604B0708D5A6
:10230000D30706D0276804233B62EB6802273B43D0
:10231000EB600B0709D520230340334305D0266823
:1023200008233362EE681E43EE600B0509D54301B6
:1023300007D501232668DB023362EB68202633438E
:10234000EB60EB68002B49D089060AD520210840B4
:10235000C9050A40104304D0216F002901D020464E
:102360008847E86821688968490602D4282108421C
:1023700039D0204601F08DFE2168886840062ED5B0
:10238000EFF31080012282F310888B684022934380
:102390008B6080F31088E06F002820D008210902AC
:1023A00000310902403109027F318163E06FFEF79D
:1023B000BCFB002812D001E003E01AE0E06F816B63
:1023C0000BE08E0615D5012720263F070640174053
:1023D0003E430ED0216FB2E020468847F8BD20462C
:1023E000FFF75BFFF8BD2046FFF757FF0020E860CE
:1023F000F8BDE66E012E7DD1CE067BD5C60679D519
:1024000010221A6223689868264640064036002843
:1024100047DAE16F086840680004000CE8D0B78B29
:102420008742E5D9F08308680068800634D4EFF36A
:102430001080012181F3108819681701B9431960D0
:1024400080F31088EFF31080012181F31088216858
:102450008B685B085B008B6080F31088EFF3108063
:10246000012181F3108821688B684027BB438B6072
:1024700080F310882020A8600020E066EFF3108031
:10248000012181F3108821680B6893430B6080F36E
:102490001088E06FFEF70EFBB08BF18B401A81B213
:1024A00034E0B08BF18B401A81B2F08B00289FD0C2
:1024B00000299DD0EFF31080012686F310881E6856
:1024C000FF272137BE431E6080F31088EFF3108092
:1024D000012383F3108823689E6810273F06013785
:1024E000BE439E6080F310882020A8600020E06634
:1024F000206700E00EE0EFF31080012383F31088E3
:1025000023681D6895431D6080F310882046FFF7FF
:1025100079FEF8BDCE0208D5560206D50120000589
:1025200018622046FFF7B8FEF8BD0E060BD501274E
:102530008026FF0506403A40164304D0616F00290B
:1025400000D049E7F8BD4A0614D5420612D5204608
:10255000EFF31081012282F310881C68402294431B
:102560001C6081F31088202169600021416700F020
:102570001AF9F8BD0A0205D5420003D52046FFF737
:102580008AFEF8BDC901FCD50028FADA2046FFF71B
:102590003AFEF8BD70B5040005D025468035686860
:1025A000002802D006E0012070BD002028702046DF
:1025B00000F026F824206860206801684908490076
:1025C0000160204601F097FD0128EDD0A06A0028A7
:1025D00002D0204601F0B8FC206841680922D202EE
:1025E00091434160206881682A229143816020687C
:1025F0000168012211430160204601F00AFD70BD0F
:1026000030B587B0044614216846FDF734FE2368D0
:10261000402440202402000201340230240200023F
:10262000383410302402002100020222A34222D1B9
:1026300040231B0202331B0210331B0240331D6870
:10264000540325431D601B6823400593436B1343CC
:102650004363406B029110400590C02000905020D1
:102660000004039104910430019269460002FEF7D0
:10267000B3FB07B030BD4024240444342402A342F9
:10268000F7D1C46B01235B041C43C463C46B1C40BF
:102690000594446B01231C434463406B0291184032
:1026A00005900C2000900391052004930192694647
:1026B0000007FEF791FB002211461C20FEF704FFE5
:1026C0001C20FEF7F5FED4E7FFB50646044680362B
:1026D000706883B00D46202863D1002D0CD005987A
:1026E000002809D00120A1680003814207D1206998
:1026F000002804D1E80702D0012007B0F0BD3078EF
:1027000001284ED0012030700020F0602120706040
:10271000FEF72EFC0190274640370598B8820598B1
:10272000F8820120A1680003814202D120690028BB
:1027300004D0029500250020307018E0002002909F
:10274000F9E706980090002280212046019B01F0C5
:10275000EBFD002818D10298002817D021680078D6
:1027600088620298401C0290F88A401EF882F88A1B
:102770000028E6D106980090002240212046019BC7
:1027800001F0D2FD002808D00320B6E72888216890
:10279000C005C00D8862AD1CE6E7202070600020F7
:1027A000ABE70220A9E770470820000200300002D2
:1027B00059300002583001F0A1FEF5E701688A693E
:1027C000D243920701D400228A6200688169C9431A
:1027D000C90703D081690122114381617047F7B5B0
:1027E0000446006882B0816900262546C906403546
:1027F00037460092002949DA1021C16136E003987A
:10280000401C33D0FEF7B4FB0099411A0398814273
:1028100001D800282AD121684A6801208003AB78BA
:1028200002409C468B69DB431B041AD4824218D0B9
:102830006246202A15D04A6802434A60FEF798FB98
:1028400000900EE0FEF794FB0099401A192808D971
:10285000616C20200143616468700020A8702870BA
:10286000012620688069C0438006EBD42068806917
:10287000C043800602D5002EC1D004E0002E02D154
:1028800021682020C8610420074301262168886947
:10289000C20504D5012217431202CA61012641056F
:1028A00008D508210F432268C901D161012680059E
:1028B00002D40AE0800506D5022007432168000201
:1028C000C861012601E0002E12D02046FFF776FFF6
:1028D00020684168FE221204E83212021140416071
:1028E000606C38436064202068700020A8702870F5
:1028F000304605B0F0BDF8B5044680200004203015
:10290000164600021D46DAB20090079F00232046BB
:1029100000F053F83A462046069900F0B4F8002833
:1029200018D12846F5B2012809D02168300A8862FA
:102930003A462046069900F0A6F800280AD12068F9
:1029400085620097002240212046069B00F04EF849
:10295000002800D00120F8BDF8B50446802000040E
:102960002030164600021D46DAB2C3020090079FCF
:10297000204600F022F83A462046069900F083F8F7
:10298000002818D12846F5B2012809D02168300A5C
:1029900088623A462046069900F075F800280AD168
:1029A000206885620097002280212046069B00F067
:1029B0001DF8002800D00120F8BD890510B5890D4B
:1029C00012041143029C19430268214349005068D4
:1029D0004908630D03242402FF34240263342402D3
:1029E000FF34234398430843506010BDF8B51D469B
:1029F00017460E46044609E0681C07D0FEF7B8FAF1
:102A00000699401AA8420BD8002D09D02068816988
:102A1000304688430FD00020B842EDD00020F8BDEA
:102A2000616C202001436164403460700020A0701C
:102A300020700120F8BD0120EEE770B516460D4666
:102A400004460FE0324629462046FFF7C8FE00281C
:102A500001D0012070BDFEF78BFA801BA84208D878
:102A6000002D06D020688069C0438006EAD400208B
:102A700070BD616C202001436164403460700020AF
:102A8000A0702070E5E770B516460D46044611E0CB
:102A9000324629462046FFF7A2FE002801D0012039
:102AA00070BD681C06D0FEF763FA801BA84208D8E8
:102AB000002D06D020688069C0438007E8D400203C
:102AC00070BD616C2020014361644034607000205F
:102AD000A0702070E3E78068C007C00F704780686F
:102AE0004007C00F7047026807239B059A430A43BB
:102AF0000260704710B543690424214007248C40CC
:102B0000A3438A401343436110BD3EB540210902EF
:102B1000002401310902243100940194090220208B
:102B20000002003000020130000284300294016093
:102B30008460C46009050461416004214161047638
:102B4000447684760121C161014620310C704462D3
:102B500084620C730463446384630C77C464FDF77C
:102B600034FE002801D072B6FEE7042000060230D1
:102B70000194694602940090202000020030000277
:102B8000013000028430FDF7F3FC002801D072B65A
:102B9000FEE73EBDF0B587B014216846FDF76BFB3C
:102BA000402000020230000210300002416B01247C
:102BB00021434163416B21400591416B022529432B
:102BC0004163416B29400591426B04210A434263F2
:102BD000406B002208400590052001210007FEF708
:102BE000C1F950200004043001222B210002FEF71D
:102BF000B9F981210520012209020007FEF7B2F987
:102C0000502000040830012240210002FEF7AAF9FA
:102C10000520009401946946000703950294FEF78D
:102C2000DBF831264020360400276A46C1C2052061
:102C300069460007FEF7D0F80920009050200004F4
:102C4000043001946946039502940002FEF7C4F82B
:102C50002220694631C15020000404306946000238
:102C60000395FEF7B9F881200002694631C10520BD
:102C7000694600070395FEF7AFF84020694631C169
:102C8000502000040830694600020395FEF7A4F8BE
:102C900010200090502000040430694601960294F0
:102CA0000002FEF799F820026A46C1C250200004D3
:102CB000043069460002FEF78FF800221146072013
:102CC000FEF702FC0720FEF7F3FB07B0F0BD402142
:102CD000090410B55831090220200002003000021A
:102CE00001300002E8300160102109027031090250
:102CF0007D310902BC314160002181600161416187
:102D000081610122C161C2600162FEF783F900287E
:102D100001D072B6FEE70021202000020030000240
:102D200001300002E830FEF72CF9002801D072B61D
:102D3000FEE70021202000020030000201300002E6
:102D4000E830FEF743F9002801D072B6FEE710BD67
:102D500010B5002488B000940121019402940394DA
:102D600004940594890720200002003000020230FC
:102D70000002343006940160F9210902FF318460B9
:102D8000416009210461C16080218161FFF766F81B
:102D9000002801D072B6FEE70120000369460090CA
:102DA0002020000200300002023000023430FFF721
:102DB000C6F8002801D072B6FEE7049404A92020CA
:102DC0000002003000020230000234300694FFF7A7
:102DD0000CF8002801D072B6FEE708B010BD402103
:102DE00009020131090210B5383109022020000220
:102DF000003000020230000280300160E12149020F
:102E0000416000218160C16001618161C161016235
:102E10000C22416242618162FFF7BCFB002801D0B5
:102E200072B6FEE7052149072020000200300002AB
:102E3000023000028030FFF70BFA002801D072B692
:102E4000FEE7052149062020000200300002023082
:102E500000028030FFF7D8F9002801D072B6FEE7F3
:102E60002020000200300002023000028030FFF714
:102E7000ABF9002801D072B6FEE710BD402109046D
:102E800010B5443109022020000200300002033056
:102E9000000210300160E12149024160002181609F
:102EA000C16001618161C16101620C2241624261C4
:102EB0008162FFF76FFB002801D072B6FEE710BDFC
:102EC000FEE770B50E460546002404E0285D00F0DC
:102ED00072FA2855641CB442F8DB2020000200304E
:102EE0000002003000022430406800280ED0002488
:102EF0000AE0295D08200002003000025B30000279
:102F0000183001F0FBFA641CB442F2DB70BD10B55E
:102F10000021202000020030000200300002243096
:102F200081600161C16000F028F910BD0EB500F0AC
:102F3000D1F8002813D055206946087008222021B6
:102F4000090200310902003109023C3100A80130B8
:102F5000FDF778F909216846FFF7B3FF01200EBDA0
:102F600010B500F00AF910BD0EB5002000F0A2F96E
:102F700000F0B0F8002815D0692000F033FA0120E5
:102F800000F098F9202109020031090200310902FC
:102F900024318869C9690191009008216846FFF7CA
:102FA00090FF01200EBD10B5002000F083F900F065
:102FB00091F83C2000F016FA012000F07BF901287E
:102FC00000D0002010BD1CB5FDF78CFA20200002B7
:102FD000003000020030000224304069FF24002845
:102FE00002D008280DD017E006200BE001A901202F
:102FF00000F0E8FD012811D00EE0FF280CD20020DF
:103000001CBD172000F041FE68460470694601208F
:1030100001F046FA0028E9D155201CBD6846007928
:10302000FF28EAD101201CBD10B5FF2000F0C3F934
:10303000044620200002003000020030000224304C
:103040004068002809D02146082000020030000214
:103050005B300002203001F051FA204610BD30B53F
:10306000C1B000F037F8012832D13320694608702A
:103070006C46FF220821601CFDF7F6F8092168461E
:10308000FFF71FFF002020252D0200352D020035FF
:103090002D02243528700346E018407801F085FDA4
:1030A0005B1C082BF8DB2878002811D16846407893
:1030B00000280DD00822611C2020000200300002F0
:1030C000003000023C30FDF7BDF8012041B030BDBA
:1030D0000020FBE71CB5FDF705FA202000020030B8
:1030E00000020030000224304069002802D0082885
:1030F00019D034E0002000F0C8FDF02069460870C7
:10310000012001F0CDF9002829D001A9012000F00B
:1031100059FD012823D16846007900281DD0F028E8
:103120001DD018D31BE0072000F0AFFDE02069465A
:103130000870012001F0B4F9002810D001A9012085
:1031400000F040FD01280AD168460079002804D02B
:10315000E02804D003D201201CBD02201CBD0020A9
:103160001CBD10B5FFF7B6FF012801D0002010BD2F
:10317000A52000F037F9012010BDF8B50125002089
:1031800004462E4601460090202000020030000236
:1031900000300002243001700069002872D1FFF76E
:1031A00099FF00286ED0F02000F01CF9FFF70BFF0C
:1031B0000746FFF708FF012F01D1012845D08742BC
:1031C00003D03846012F10D020E020210902003121
:1031D0000902003109022431886885420FDA084665
:1031E0001830005D30400DD001202021090200314F
:1031F0000902003109023C310A5D32430FE0854289
:10320000F2D000200095092D00DACD6020210902BE
:1032100000310902003109023C310A5DB2430A550E
:1032200000F05FF870006D1C0606360E0BD12020F2
:10323000000200300002003000023C30005D01F06E
:10324000B4FC0126641C082CB0DB412D1ADB2020C5
:103250000002003000020030000224300178002912
:1032600010D100998160002901D101210161012063
:103270002021090200310902003109023C3109789C
:1032800000290AD100202021090200310902003161
:103290000902243188600861C860F8BD10B5FFF7E5
:1032A00019FF012801D0002010BDCC2000F09AF8B1
:1032B000012010BD2021090200310902003109025C
:1032C0002431012805D0002807D04869082802D0F9
:1032D00005E0082048610120704700204861002077
:1032E00070477CB50546FDF7FDF8E8072024240269
:1032F0000034240200342402243400280DD06069F4
:10330000FF26002802D008280AD006E0062008E0A0
:1033100068460079FF284AD047D3002D12D048E0F4
:10332000172000F0B2FC684606706946012001F0E3
:10333000B7F80028F1D001A9012000F043FC0128D2
:10334000E6D0EAE76069002802D0082817D030E00C
:10335000062000F09AFCC02069460870012001F0A8
:103360009FF8002825D001A9012000F02BFC01289E
:103370001FD168460079C02819D016D319E017204C
:1033800000F083FC802069460870012001F088F875
:1033900000280ED001A9012000F014FC012808D15A
:1033A00068460079802802D003D200207CBD01202D
:1033B0007CBD55207CBDF8B50024064625468027F7
:1033C0006408F00705D0FFF7FEFD002804D03C4359
:1033D00002E00020FFF785FF76086D1C082DEFDB6B
:1033E0002046F8BD10B50446202212020032120217
:1033F0000032120224325268002A09D00146082005
:103400000002003000025B300002183001F076F854
:103410002046FFF7D0FF10BD10B520210902003172
:1034200009020131090270310968002909D00146F9
:1034300008200002003000025F300002743001F00A
:103440005DF8204610BDF8B50646772400202025FB
:103450002D0200352D0201352D0244352880FDF75F
:1034600008F8002821D02046FFF7BCFF204601F0D5
:1034700079FBFFF7D9FD308001F074FBFFF7D4FD35
:10348000694608700646FFF7CFFD69464870044656
:10349000304601F067FB204601F064FBB02128882C
:1034A00009020131884201D10120F8BD0020F8BD98
:1034B0007047F0B51D25DDB0B022082109020031AA
:1034C000090254310902F43131A8FCF7BBFEA022F5
:1034D000082109020031090255310902A43105A869
:1034E000FCF7B0FE00206946088020A988860446C3
:1034F0002026360200363602003636021036308874
:10350000641C81B2A4B20020FDF71BF800282AD168
:103510000120FDF748FB3068010C0020FDF711F891
:10352000002820D100211E20FDF70BF80120FDF717
:103530003AFB2DA93020FCF7EAFF20A8808EC007B7
:1035400011D008200002003000025A3000020C3076
:1035500000F0D4FF69463620FCF7D9FF6846808A20
:1035600013280ED06BE0052C07D90820000200308C
:1035700000025A3000022430B3E10A20FDF713FBA9
:10358000BDE7032003900026CB2000023418A1B22F
:103590003E20FCF7D6FFA1B23E20FCF7D2FF01206F
:1035A000FDF701FB0024F7003819410005A8415A36
:1035B00060004030C0B2FCF7C4FF0120FDF7F3FA11
:1035C000641CA4B2082CEFD3761CB6B2092EDBD350
:1035D000CB242402093421463E20FCF7B2FF2146C9
:1035E0003E20FCF7AEFF0120FDF7DDFA002405AE1A
:1035F0006000811980314030098AC0B2FCF7A1FF18
:103600000120FDF7D0FA641CA4B2052CF0D30021F0
:103610001E20FCF796FF0A20FDF7C5FA69460C202C
:10362000FCF775FF6846008800057ED5082000027B
:10363000003000025A3000023C3000F05FFF652489
:103640002402533421463E20FCF77BFF21463E20D6
:10365000FCF777FF0120FDF7A6FA64214020FCF774
:1036600070FF0120FDF79FFA0B2424025F342146EE
:103670004220FCF766FF0120FDF795FA6421442003
:10368000FCF75FFF0120FDF78EFA21464620FCF78C
:1036900058FF0120FDF787FAFF214820FCF751FF72
:1036A0000120FDF780FA232149024A20FCF749FF57
:1036B00000211E20FCF745FF0120FDF774FA652468
:1036C0002402523421463E20FCF73BFF21463E2097
:1036D000FCF737FF0120FDF766FA8321090240203D
:1036E000FCF72FFF00211E20FCF72BFF0120FDF728
:1036F0005AFA661E31463E20FCF723FF31463E2033
:10370000FCF71FFF0120FDF74EFAE921C901402017
:10371000FCF717FF0120FDF746FA40214220FCF795
:1037200010FF0120FDF73FFA00E0CCE03E21090246
:10373000FB314420FCF705FF0120FDF734FA20217E
:10374000090201314620FCF7FCFE0120FDF72BFAAF
:10375000062109027F314820FCF7F3FE00211E20DC
:10376000FCF7EFFE0120FDF71EFA31463E20FCF784
:10377000E8FE31463E20FCF7E4FE0120FDF713FA97
:103780000221090212314C20FCF7DBFE00211E2031
:10379000FCF7D7FE0120FDF706FAFF208F306946BF
:1037A0000880E61C31463E20FCF7CBFE31463E2029
:1037B000FCF7C7FE0120FDF7F6F9694609884420A9
:1037C000FCF7BFFE0120FDF7EEF9412109020531AA
:1037D0004620FCF7B6FE0120FDF7E5F912210902AB
:1037E00066314A20FCF7ADFE00211E20FCF7A9FE41
:1037F0000120FDF7D8F921463E20FCF7A2FE214624
:103800003E20FCF79EFE0120FDF7CDF986214A20DF
:10381000FCF797FE0120FDF7C6F986214C20FCF746
:1038200090FE00211E20FCF78CFE0120FDF7BBF965
:10383000002431AE0620274647436520F15B000295
:103840005030081881B23E20FCF77BFE6520F15B0A
:1038500000025030081881B23E20FCF772FE0120B1
:10386000FDF7A1F9B81981888078FCF76AFE01207C
:10387000FDF799F9641CA4B2AC42DBD300211E20F1
:10388000FCF75FFE65242402013421463E20FCF74C
:1038900058FE21463E20FCF754FE0520FDF783F933
:1038A00069464020FCF733FE68460188E920C001E4
:1038B000814218D169464220FCF729FE68460088FB
:1038C0004028F6D110E00398401E80B203900028F3
:1038D00000D058E608200002003000025A300002F2
:1038E000583000F00BFEDEE069464420FCF70FFE86
:1038F000684601883E200002FB308142F3D16946D0
:103900004620FCF704FE68460188202000020130B2
:103910008142E8D169464820FCF7F9FD68460188F4
:10392000062000027F308142DDD169464C20FCF741
:10393000EEFD6846018802200002123081427ED1ED
:1039400065242402023421463E20FCF7FAFD21467C
:103950003E20FCF7F6FD0520FDF725F969464A20D3
:10396000FCF7D5FD68460088862868D169464C205A
:10397000FCF7CDFD68460088862860D1641C21468E
:103980003E20FCF7DEFD21463E20FCF7DAFD052057
:10399000FDF709F969464020FCF7B9FD6846008843
:1039A00064284CD169464220FCF7B1FD68460B24DF
:1039B000008824025F34A04275D169464420FCF798
:1039C000A6FD6846008864286DD169464620FCF74C
:1039D0009EFD68460088A04265D169464820FCF7F4
:1039E00096FD68460088FF285DD169464A20FCF7AD
:1039F0008EFD6846018823204002814253D1652410
:103A00002402053421463E20FCF79BFD21463E2042
:103A1000FCF797FD0520FDF7C6F869464420FCF742
:103A200076FD684601880846FF388F383BD16946E5
:103A30004620FCF76CFD68460188412000E032E03A
:103A40000002053081422ED169464A20FCF75FFD15
:103A500068460188122000026630814223D1002D81
:103A600029D0002425E0062027464743F15B652046
:103A70000002081881B23E20FCF763FDF15B65206F
:103A80000002081881B23E20FCF75BFD0520FDF71F
:103A90008AF8BF19B8786946FCF739FD6946B888D5
:103AA0000988884203D00020C0435DB0F0BD641C8B
:103AB000A4B2AC42D7D3012189030020FCF741FD19
:103AC00000211E20FCF73DFD0520FDF76CF869463E
:103AD0003020FCF71CFD68460188FE200002FF3004
:103AE0000140684601803020FCF72BFD00211E209C
:103AF000FCF727FD0120FDF756F820210020FCF7F8
:103B000020FD00211E20FCF71CFD0520FDF74BF8D1
:103B10000020CAE710B52021090200310902013155
:103B2000090270310968002909D001460820000205
:103B3000003000025F300002C43000F0DFFC10BD36
:103B4000F8B5074644240020202636020036360207
:103B50000136360244363080FCF78BFC00282ED02C
:103B60002046FFF73FFC204600F0FCFFFFF75CFA21
:103B70000546FF2824D000F0F5FF002406E0FFF7FB
:103B800053FA6100785200F0EDFF641CAC42F6DBA2
:103B9000FFF74AFA694608700446FFF745FA694696
:103BA00048700546204600F0DDFF284600F0DAFFA9
:103BB000B021308809020131884201D10120F8BDCD
:103BC0000020F8BD70B500242546002826D020200E
:103BD000000200300002013000027030006800284E
:103BE0001BD008200002003000025F300002A0302D
:103BF00000F084FC294608200002003000025F30FB
:103C00000002A43000F07AFC08200002003000021C
:103C10005F3000029C3000F071FC204670BDF8B5AA
:103C200004465526FCF725FC00282AD00020202534
:103C30002D0200352D0201352D02443528803046F5
:103C4000FFF7D0FB304600F08DFFFFF7EDF9208045
:103C500000F088FFFFF7E8F9694608700646FFF7AD
:103C6000E3F9694648700446304600F07BFF204681
:103C700000F078FFB021288809020131884201D183
:103C80000120F8BD0020F8BD7047704710B5012035
:103C9000FFF740FF0120FCF7D6FB1A2001F0FAFAEB
:103CA0000020FFF737FF10BDF8B5002069460880F7
:103CB000202424020034240203342402C0342025AA
:103CC0002D0200352D0200352D023C354100615C8E
:103CD0002954401C0828F9DB022001F0BEFB68468D
:103CE000FFF7B1FB68460088C306202109020031B6
:103CF000090203310902B0310A46103A002B0ADAF0
:103D000000202E5C4300CE521E19368A401CD6522B
:103D10000828F6DB0BE0C0070AD000202E5C430029
:103D2000D6521E19368A401CCE520828F6DB0120D6
:103D3000F8BD10B50020FCF786FB0120FFF7EAFE76
:103D400010BD10B5FDF748FB10BD30B59DB0382152
:103D50006846FCF790FA0024189419941A942821C4
:103D60000EA81B94FCF787FA01204002FDF7B0FB78
:103D70000225E801039000954020059008200A9054
:103D800080030B90079500020C90089500010494A5
:103D90000D9009946846FDF7F9FD002801D072B630
:103DA000FEE7072018901A94022119951B9418A871
:103DB000FDF7B3FC002801D072B6FEE740200002F8
:103DC00001300E900F9415940EA8FDF7ADFB00285E
:103DD00001D072B6FEE71DB030BD704710B520208F
:103DE000000200300002023000023430FEF717F902
:103DF00010BDF0B5026840231B02013340251B02B1
:103E00002D042C33012404351B02A4072D029842F3
:103E100003D0A04201D0A84203D17026B2434E681D
:103E200032434026402736023F0201360137360230
:103E30003F024436483736023F0298420DD0A04236
:103E40000BD0A84209D04024240420342402A042EC
:103E500003D0B04201D0B84204D103242402A243CB
:103E6000CC6822438024A2434C69224302608A68C2
:103E7000C2620A688262984203D0B04201D0B8425E
:103E800001D10969016301214161F0BD30B5846848
:103E9000FF252D021B021343AC430B4323438360D6
:103EA00030BD826830231B0470339A430A430721D4
:103EB0000A438260704730B5036A046A640864008C
:103EC00004628469F025AC43120122430A24A3430F
:103ED0000B438261036230BD30B5036A1024A343F3
:103EE00003628469036A0F252D031203AC43224346
:103EF000A024A343090119438261016230BDF8B5D2
:103F00000446416E403400291BD0006881688068F7
:103F100009014D0F400F082636020036360256368C
:103F2000360264363746315C083F385CC000FCF727
:103F3000E1F86085785D715DC000FCF7DBF82085F5
:103F4000F8BD01206085FAE710B5018DC90707D0DB
:103F500001684A6801235B049A43C36A1A434A60B2
:103F6000018D890707D501684A6801231B049A431C
:103F7000036B1A434A60018D490707D501684A68F7
:103F800001239B049A43436B1A434A60018D09073E
:103F900007D501684A680123DB039A43836B1A4300
:103FA0004A60018DC90607D50268916801231B0389
:103FB0009943C36B19439160018D890607D5016848
:103FC0008A6801235B039A43036C1A438A60018D5C
:103FD000490612D503685A6801210905446C8A43D1
:103FE00022435A60426C8A4207D102685168032317
:103FF0005B059943836C19435160018D090607D510
:1040000001684A680123DB04C06C9A4302434A609A
:1040100010BDFEB50546002680350446EE60FCF76F
:10402000A7FF01902068006801273F02FF373F0289
:10403000FF373F020007FF37002809DA0121009708
:10404000002249052046019B00F06EF900280DD1A1
:104050002068006840070BD50121009700228905E0
:104060002046019B00F060F9002801D00320FEBD2E
:1040700020206860A860E6662E700020FEBD10B5A6
:10408000806A002201464031CA83CA82FEF705F9E0
:1040900010BD10B5EFF31081012282F31088026881
:1040A0001368FF242134A343136081F31088EFF3D6
:1040B0001081012282F3108802689368102424067C
:1040C0000134A343936081F31088C16E01290BD1A1
:1040D000EFF31081012282F3108802681368102424
:1040E000A343136081F31088202288210A50002105
:1040F000C166016710BDF8B5044601688068236990
:10410000402218431204E5696369803200261202D6
:104110002B4318430B6830252D0496352D020C35A2
:10412000AB4303430B60216848682B149843E36852
:10413000184348602168A069914201D0236A18435E
:104140008B68EE252D040B352D02AB4303438B60AA
:104150002068C16A636A090909011943C1624020E4
:104160004021000209020230013100020902103030
:10417000383100022368090240308B420AD140697D
:104180008007800F0CD0012838D0022834D00328B3
:1041900019D116E040210904443109028B4201D1B2
:1041A000002111E093420ED14169032080020140B9
:1041B0000AD001208002091A20D0091A1CD081429D
:1041C00001D1082100E01021F4252D0224352D0213
:1041D00008273F0200373F0256373F02443701208D
:1041E000C003934241D100290AD0022911D00429E9
:1041F00009D0082938D10BE00221E5E70421E3E7E3
:10420000FDF75CFB01E0FDF777FB050001D181E0E4
:104210000546606A4000395A28460091FBF76AFF5C
:1042200067687900791881426FD8390381426CD36D
:10423000002328461946009AFBF786FF020E090262
:104240000302780811431818002251413A4600230E
:10425000FBF77AFF0F2212020321FC32090212023D
:10426000411AFF32914253D94FE0E269824229D18B
:10427000002906D0022907D0042907D0082944D1F3
:1042800008E0FDF71BFB03E0284603E0FDF734FBE5
:1042900000283FD0616A4900795AFBF72BFF61681B
:1042A00040004A088018FBF725FFFF220146120252
:1042B0001039EF32914228D8511C01400007400FBD
:1042C000084325E0002906D0022907D0042907D099
:1042D00008291AD108E0FDF7F1FA03E0284603E0C7
:1042E000FDF70AFB002815D0616A4900795AFBF7EF
:1042F00001FF61684A088018FBF7FCFEFF220146B7
:1043000012021039EF32914201D9012602E080B247
:104310002168C86020460121403041850185002088
:10432000206760673046F8BDFFB581B00546174687
:10433000044680350A9E54E0701C52D0FCF718FEEB
:104340000499401AB0422FD8002E2DD02068016861
:10435000490746D5C069C043000542D40120216801
:10436000C0020862EFF31080012181F310882168F8
:104370000B68FF22A13293430B6080F31088EFF3A8
:104380001080012181F3108821688A685208520048
:104390008A6080F3108820206860A860E8600020B0
:1043A0002870032005B0F0BDEFF31080012181F3E8
:1043B000108821680A68FF23A1339A430A6080F3BA
:1043C0001088EFF31080012181F3108821688A683A
:1043D000520852008A6080F3108820206860A8602C
:1043E000DDE72068C1690298884304D00020B84204
:1043F000A2D00020D6E70120F9E710B52020000266
:1044000000300002033000021030FDF747FF10BDFE
:10441000F0B585B005463324082202A8FBF712FF49
:10442000002020273F0200373F0201373F02443778
:104430003880FCF71EF800282ED02046FEF7D2FF69
:10444000204600F08FFBE8B2FEF7CCFFA8B200F0E8
:1044500089FB002402AE06E0305DFEF7C3FF305D4D
:1044600000F080FB641CAC42F6DBFEF7DDFD694624
:1044700008700546FEF7D8FD694648700446284690
:1044800000F070FB204600F06DFBB0213888090277
:104490000131884202D1012005B0F0BD0020FBE7C8
:1044A000F8B50F4605460026202000020030000225
:1044B0000130000270300068002817D000240AE0A4
:1044C000395D08200002003000025F3000029430A5
:1044D00000F014F8641CAC42F2DB0820000200304B
:1044E00000025F3000029C3000F008F8281E01D066
:1044F000864201D00020F8BD0120F8BD0FB410B5F0
:1045000003A9044B044A029800F03CF810BC08BC14
:1045100004B01847514F0008780100208307FF229C
:10452000DB0E9A408907090E994000280BDB8308AF
:10453000E0200004E4309B0000021B181868904340
:104540000843186070470007000F08388308E02010
:104550000004ED309B0000021B18D869904308430B
:10456000D861704702E008C8121F08C1002AFAD1BA
:1045700070477047002001E001C1121F002AFBD1E3
:1045800070470000FFB591B00F460546002606E0D3
:1045900025280AD0149A139990476D1C761C287808
:1045A0000028F5D1304615B0F0BD0024009401215B
:1045B000F34A029400E004436D1C2B780846203B2C
:1045C00098401042F7D128782A280ED00222287865
:1045D00001463039092915D800990A235943303941
:1045E000401814436D1C0090F1E701CF00900028A3
:1045F00005DA012040030443009840420090022065
:1046000004436D1C28782E2815D1042004436878B3
:104610006D1C2A280AD101CF6D1C02900BE0029973
:104620000A225143303940186D1C02902878014607
:1046300030390929F3D928786C2810D006DC4C28A9
:104640001AD068280ED06A2817D104E0742813D035
:104650007A2812D110E00120400504430CE001212A
:10466000090501E0032109050C436978814203D162
:104670000120000524186D1C6D1C28786E281ED0A2
:104680000CDC632831D004DC00288BD0582811D1F1
:10469000B2E064287BD069280CD178E073282DD053
:1046A00004DC6F2870D0702804D1A7E075286CD086
:1046B00078286BD0149A13999047761C62E06002B8
:1046C000400F022807D003280AD0042838680AD0EF
:1046D00006603F1D56E03868F11706604160F8E754
:1046E00038680680F5E70670F3E73878694608749D
:1046F0000020487404A80390012003E03868039068
:104700000020C0433F1D61070FD5002101E0019942
:10471000491C029A0191914213DA8142F7DB019A16
:104720000399895C0029F2D10BE0002101E0019995
:10473000491C01918142FADB019A0399895C0029A5
:10474000F5D101990098139A401A00902146149BC4
:1047500000F03CF901998019461807E00398039985
:104760000078491C0391149A139990470198401EB0
:104770000190401CF2D12146149B139A009800F03E
:1047800015F986196D1C0AE741E033E034E00A2090
:104790000021049005916002410F022905D001CF4C
:1047A000C2179446032905D007E0FF1DFF08FF004C
:1047B00003CF06E000B2C2179446042902D140B2EA
:1047C000C1178C4600226146944506DA0A4600214C
:1047D000404291418C462D2102E0210504D52B2138
:1047E0006A461176012103E0E10701D02021F7E7B5
:1047F000019155E00A200BE0102009E01020049000
:1048000000210420044308200591029003E00820C1
:104810000021059104906002410F022905D001CFCB
:1048200000229446032906D006E0FF1DFF08FF0082
:1048300003CF8C4603E080B2042900D1C0B200212E
:10484000019121072CD529780391702906D0049A6B
:104850001021059B4A401A4305D00EE040216A46CC
:104860001176012108E06146014306D030216A46F5
:1048700011760399517602210191049A0821059B32
:104880004A401A430CD16146014301D1610707D563
:1048900030216A461176012101910299491E029147
:1048A0002978582904D037A103910FA90F910DE061
:1048B00039A1F9E76146059B049AFBF745FC039B88
:1048C0008C469B5C0F9A521E0F92137061460143F7
:1048D000F0D10F9807A9081A20300390600704D57B
:1048E000012000048443029801E001200290039912
:1048F000884201DD401A00E0002041180290019832
:1049000009180098401A0090E00306D42146149B31
:10491000139A009800F05AF886190020049008E0D5
:1049200006A9085C149A139990470498401C761CB9
:10493000049001998842F3DBE0030CD52146149BD7
:10494000139A009800F042F8861904E0149A302077
:1049500013999047761C0299481E02900029F5DCB5
:1049600008E00F980F990078491C0F91149A139939
:104970009047761C0399481E03900029F1DCFAE663
:104980000928010030313233343536373839616225
:1049900063646566000000003031323334353637E9
:1049A000383941424344454600000000F8B504460A
:1049B00000251E461746880404D405E03946202009
:1049C000B0476D1C641EF9D52846F8BDFFB50446F6
:1049D000002581B01E46C80301D5302700E02027FE
:1049E000880404D505E038460399B0476D1C641E61
:1049F000F9D5284605B0F0BD30B587B0142101A81F
:104A0000FBF739FC402000020230000210300002A7
:104A1000426B01210A434263406B0224084000902C
:104A2000B02001AA13C205252D0701A92846049428
:104A3000FCF7D2F90022B0212846FCF793FA0022B5
:104A400010212846FCF78EFA002220212846FCF788
:104A500089FA002280212846FCF784FA182000F009
:104A6000E3FB20252D0200352D0200352D020035F7
:104A7000686000282ED00470082109020031090264
:104A8000543109026D314160002181600821090221
:104A9000003109024A310902EB31C16008210902E3
:104AA000003109024F3109028331016108210902F5
:104AB000003109024F3109028731416108200002AB
:104AC0000030000256300002F430FFF717FD68682E
:104AD00007B030BD0820000200300002563000024E
:104AE000D830FFF70BFD0020F2E7704770B50D4698
:104AF000040036D020263602003636020036360252
:104B000000367078002808D1052040210007FCF706
:104B100024FA002800D001202070207831788842C3
:104B20001FD0002802D0012819D10BE0002D01D0A0
:104B30000020A84708200002003000025730000281
:104B400014300AE0002D01D00120A84708200002FF
:104B500000300002573000023030FFF7CFFC2078E1
:104B6000307070BD30B520210902003109020131D9
:104B7000090244310A885040C0B20307DC0E120A11
:104B80000B460A80083305091C5F6D005B5F9C4281
:104B900004D0C0231B0201335A400A8082010888D6
:104BA000504052005040088030BD202109020031A1
:104BB00009020031090224310A78424008462030B7
:104BC000805C087070471FB50C4605460821090235
:104BD000003109025B310902603108200002003017
:104BE00000025B30000264300020C0462021090230
:104BF00000310902013109026C310860002808D136
:104C000008200002003000025B3000026C30FFF729
:104C100075FC03A8FBF7DAFA0EC801920093029123
:104C20000722120281686C328B18026841680820E2
:104C30000002003000025B3000029830491CFFF790
:104C40005DFC08200002003000025B300002C8302A
:104C5000FFF754FC08200002003000025B30000225
:104C6000FC30FFF74BFC08200002003000025C30F3
:104C700000021830FFF742FC022D08D00820000285
:104C8000003000025C3000024C30FFF737FC6068F7
:104C9000FEF7C2FB012812D00820000200300002FB
:104CA0005C300002E0306168FFF728FC0820000259
:104CB000003000025D3000020030FFF71FFC0820CA
:104CC0000002003000025D3000022030FFF716FCC9
:104CD00008200002003000025D3000025030FFF773
:104CE0000DFC08200002003000025D300002803020
:104CF000FFF704FC08200002003000025D300002D3
:104D0000A430FFF7FBFB08200002003000025D30FA
:104D10000002E430FFF7F2FB0020FEF7FBFE032069
:104D200000F0B8FA08200002003000025E300002F5
:104D30002030FFF7E3FB0120FEF7BCFA00242646F3
:104D400020252D0200352D0203352D02A035FEF75A
:104D5000F0FFFEF7BFF9002874D0082000020030F1
:104D600000025E3000024430FFF7C8FB022C09D07D
:104D7000202000020030000203300002C030FBF7A8
:104D80003CFB04462046FBF7E0FA07000FD0FEF795
:104D90007DFF08200002003000025E30000260301B
:104DA000FFF7ACFB13200002883000F073FAFEF727
:104DB000C0FF002E47D1FEF777FF002843D0002F19
:104DC000C5D108200002003000025E3000028430AD
:104DD000FFF794FB7000295A0820000200300002FF
:104DE0005E3000029430FFF789FB761C082EF1DB61
:104DF00008200002003000025E3000029C30FFF705
:104E00007DFB002620273F0200373F0203373F0289
:104E1000B0377000395A08200002003000025E30BE
:104E200000029430FFF76AFB761C082EF1DB0820A5
:104E30000002003000025E300002AC30FFF75EFB83
:104E4000012602E06DE0002F81D100212020000228
:104E500000300002003000023C304A00AA5C42549C
:104E6000491C0829F9DB112020273F0200373F02A7
:104E700003373F02E0373880FBF796F96421FBF7F0
:104E80004FF9798039460220FFF7C2FA002808D08E
:104E900008200002003000025E300002B030FFF750
:104EA0002DFBFEF7F3FE08200002003000025E300A
:104EB0000002D030FFF722FB7D20400100F0EAF92C
:104EC000FEF737FF2020000200300002033000020E
:104ED000E03000F021FA002800D138E73888222895
:104EE00009D1798808200002003000025E300002FB
:104EF000F830FFF703FB20210902003109020331DA
:104F00000902E0310020FFF783FA0028E5D00820ED
:104F10000002003000025F3000022430FFF7EEFA9A
:104F200015E70120FEF7F6FD0120FBF78CFA0820BB
:104F30000002003000025F3000024030FFF7DEFA6E
:104F40000120000286300002A030FBF72CFEFEE6B6
:104F500013B50023DB430122694620200002003004
:104F60000002023000028030FDF7AEFB00981CBD4D
:104F700020200002003000020030000200304068B3
:104F800070470020704720200002003000020030EF
:104F90000002003040680078704770B5040033D0DC
:104FA00020252D0200352D0200352D020835A87868
:104FB00000280ED1FF21052001310007FBF7CDFFAE
:104FC00001460120002901D0207001E0002121705C
:104FD000A87020786978884216D0002809D0012866
:104FE00010D108200002003000025730000250307B
:104FF00006E0082000020030000257300002603056
:10500000FFF77CFA2078687070BDF3B550231B045D
:105010005024083324041B02FF27052504340137DC
:105020002D0724021E0181B007287ED20821090223
:10503000003109025F310902F731095C49008F44F0
:1050400000BF40211846029AFBF78CFF39462846DC
:10505000029AFBF787FF02212046029AFBF782FFA4
:1050600031462846029AFBF77DFF20212046029A0E
:10507000FBF778FF082000020030000258300002E1
:10508000C03062E040211846029AFBF76BFF08200F
:1050900000020030000258300002D43055E039469A
:1050A0002846029AFBF75EFF08200002003000024B
:1050B00058300002E43048E002212046029AFBF713
:1050C00051FF082000020030000258300002F83082
:1050D0003BE031462846029AFBF744FF08200002D5
:1050E000003000025930000208302EE02021204616
:1050F000029AFBF737FF0820000200300002593007
:1051000000021C3021E040211846029AFBF72AFFDA
:1051100039462846029AFBF725FF02212046029ACB
:10512000FBF720FF3146284600E010E0029AFBF72B
:1051300019FF20212046029AFBF714FF08200002E5
:1051400000300002593000023030FFF7D7F9FEBDC1
:105150001CB5FCF74DF9132000028830FBF723FD46
:10516000FEF7F3FDFDF716FDFDF739FEFDF7F0FD47
:10517000FDF7ADFDFDF782FEFDF7C7FC00F091F8ED
:10518000FFF73AFC019020200002003000020230BC
:1051900000023430FCF7A4FE002801D072B6FEE70E
:1051A00000F0CFF8FFF70FFD7D25ED005527DE2439
:1051B0000026F64300210198FFF798FC202000020A
:1051C00000300002003000020C30FFF7E6FE2846F7
:1051D000FBF7E9FC20200002003000020130000251
:1051E0008430FBF712FC684607703946447008208B
:1051F000000200300002593000024430FFF77EF90F
:1052000033460122694620200002003000020330AC
:1052100000021030FDF758FA00210220FFF7F5FEDA
:1052200000F02EF9C6E70000F0B50B30C108C90048
:10523000144F0026144A0FE003688B420BD38B42B5
:1052400005D95C1A4318456830C3083B00E0436841
:10525000136002C004E0021D10680028ECD1304643
:10526000002803D13868002801D00020F0BD064A8C
:1052700006481060064A121AD208D20044C0012023
:105280003860D7E7800100207C0100202404002042
:10529000200600207D2110B5C9004843FBF783FCA0
:1052A00010BD10B508200002003000025730000287
:1052B0007430FFF723F90821090200310902573140
:1052C0000902A0310820000200300002573000021D
:1052D000A830FFF713F908221202003212025732E7
:1052E0001202C032082109020031090257310902B5
:1052F000CC31082000020030000257300002D830C4
:10530000FFF7FCF8082000020030000257300002CE
:105310007430FFF7F3F810BD38B50446022000F0F2
:105320009CF86846FEF77BFC69460988890706D524
:105330002046FEF705FC002801D0012038BD0020E2
:1053400038BD38B50020694608800446451E641CF7
:10535000A4B269460C20FBF7DAF86846008800061C
:1053600064D53C20FBF71FFC69463020FBF7CFF8E3
:1053700068460088C00520D5FEF79BF8002814D1A8
:1053800008200002003000025A3000027430FFF79B
:10539000B5F802210846FBF7D4F800211E20FBF7E0
:1053A000D0F80520FBF7FFFB10E0082000020030DA
:1053B00000025A300002903041E008200002003024
:1053C00000025A300002A430FFF798F80024694622
:1053D0000220FBF79CF868460088022824D0641C51
:1053E000A4B269460C20FBF792F8684600880006D4
:1053F0002DD53C20FBF7D7FBFEF75BF80028D4D176
:1054000008200002003000025A3000027430FFF71A
:1054100075F802210846FBF794F800211E20FBF7DF
:1054200090F80520FBF7BFFB002038BD142C0AD9EB
:1054300008200002003000025A300002C430FFF79A
:105440005DF8284638BD1420FBF7ADFB7FE7142C30
:10545000EED81420FBF7A7FBC1E720210902003199
:1054600009020131090244314860704720210902D4
:1054700000310902003109020031496808707047A3
:1054800010B5202000020030000200300002083079
:10549000017800290DD164220270C1784B1CC370C1
:1054A000082000020030000257300002F430FFF7FD
:1054B00025F810BD6C590008785900088459000877
:1054C000905900089C590008A8590008B0590008D4
:1054D000B8590008C0590008C8590008D059000838
:1054E000DC590008E8590008F459000800000000E1
:1054F0000000000001004E00060802004E000444B7
:1055000003004E0006B705004600054105004800AF
:10551000040205004C0023320600400013880600F8
:10552000420024820600440077AD0600480012A322
:1055300006004A00526806004C00576406004E0000
:105540001E04070040001E13070042000504070068
:10555000440004040700460002020700480001015D
:1055600007004A00020207004C00020007004E003C
:1055700000FF08004000FDFA08004200FAFA0800A7
:105580004400F9F908004600F4EF08004800FAFA70
:1055900008004A00FAF808004C00F8E908004E003C
:1055A000D50000001300C044004B1A56D3590D5CBF
:1055B000935CC65D4D5F2060D3606D613A62BA64F2
:1055C000CD66FA671A695A6AAD6B6D7000191A0BCD
:1055D000DE02580222004000300032004200530038
:1055E00075007F0082007B0089008E006200E6016A
:1055F000130080FF000000029A0480064D0EE6179B
:105600001A289A300036B339333D4D47804F6654DF
:105610009A581A5D006400690A00170059006D006D
:105620006E07000450052705DB0315033002050251
:10563000FA011602DE01CD019B0287003DFF00004A
:1056400000000000010002000400060008000A003B
:105650000C00100020004000800000010101010347
:105660000701000008040204080101010000000015
:10567000000000000000000000000000000000002A
:105680000000000000000000000000000100000019
:1056900002000000030000000400000006000000FB
:1056A00007000000080000000900000000000000E2
:1056B00000000000000000000000000001000000E9
:1056C0000200000003000000040000001F1D1F1E58
:1056D0001F1E1F1F1E1F1E1F4D41583737373837DB
:1056E0003A6D616C6C6F63206661696C6421212185
:1056F0000D0A00004D415837373738373A63686133
:105700007267657220696E6974207375636365736F
:10571000730D0A004D415837373738373A545950CE
:1057200045435F49535F45584953540D0A000000F3
:105730004D415837373738373A54595045435F4908
:10574000535F4E4F545F45584953540D0A000000B3
:1057500068616C6C3A48414C4C5F4641520D0A00FE
:1057600068616C6C3A48414C4C5F4E4541520D0AA1
:10577000000000002A2A2A2A2A2A2A2A2A2A2A2A31
:105780002A2A2A2A2A2A2A2A2A2A2A2A2A2A2A2A79
:105790002A2A2A2A2A2A2A2A2A2A2A2A2A0D0A00D0
:1057A00056312E302E3000004669726D7761726579
:1057B0002056657273696F6E3A2025730D0A0000DA
:1057C00031313A34303A3430000000004D617220FB
:1057D0003132203230323500436F6D70696C652094
:1057E000446174653A2025732054696D653A20251B
:1057F000730D0A004D43553A25642074696D657236
:105800002E74696D655F317325640D0A0000000018
:105810004750494F5F50494E5F3420526973696E5B
:10582000670D0A004750494F5F50494E5F3620527E
:105830006973696E670D0A004750494F5F50494EC2
:105840005F3820526973696E670D0A00556E6B6F81
:10585000776E20526973696E670D0A004750494F91
:105860005F50494E5F342046616C6C696E670D0A6B
:10587000000000004750494F5F50494E5F362046B8
:10588000616C6C696E670D0A000000004750494F5B
:105890005F50494E5F382046616C6C696E670D0A37
:1058A00000000000556E6B6F776E2046616C6C696E
:1058B0006E670D0A00000000523A25303278000071
:1058C000416C6C204C45447320617265204F464604
:1058D0000A000000526564204C4544206973204F43
:1058E0004E0A0000477265656E204C45442069737E
:1058F000204F4E0A00000000426C7565204C454464
:10590000206973204F4E0A005768697465204C4522
:1059100044206973204F4E0A0000000057686974E4
:1059200065204C45442031206973204F4E0A000009
:10593000416C6C204C45447320617265204F4E0AC7
:1059400000000000756172742073656E643D3078EC
:10595000253032780D0A0000486172644661756C2A
:10596000745F48616E646C65720D0A0053797374DC
:10597000656D5F54696D65005245475F56424154FD
:10598000000000005245475F43555252000000009E
:105990005245475F54454D50000000005245475F57
:1059A000494E5454000000005245475F534F430096
:1059B0005245475F524D00005245475F534F4800E4
:1059C0005245475F444300005245475F464343000A
:1059D0005245475F464C4147310000005245475F02
:1059E000464C4147320000005245475F464C414714
:1059F000330000005245475F4952510025733A2059
:105A00003078253034780D0A0000000052543934C3
:105A100032365F556E7365616C5F506173730D0A4A
:105A2000000000005254393432365F556E736561A0
:105A30006C5F4661696C0D0A0000000052543934F5
:105A400032365F4F43565F53657474696E675F50BB
:105A50006173730D0A0000005254393432365F4FBF
:105A600043565F53657474696E675F4661696C0D78
:105A70000A0000005254393432365F696E69745F2F
:105A80007375636365737366756C0D0A00000000BF
:105A90005254393432365F696E69745F6661696C7D
:105AA0000D0A00004E6F5F4E6565645F746F5F7234
:105AB00065696E6974696C5F5254393432360D0A07
:105AC000000000005254393432365F696E69745FE9
:105AD0006572726F720D0A000A20525439343236E0
