:020000040800F2
:1000000048080020D9000008D12B0008B9240008B6
:1000100000000000000000000000000000000000E0
:10002000000000000000000000000000373200085F
:100030000000000000000000D32B00083932000847
:10004000EB000008EB000008EB000008EB000008E4
:10005000EB000008EB000008EB000008310200088C
:1000600000000000EB000008EB000008EB000008B7
:10007000EB000008EB000008EB000008D33200089A
:10008000EB000008EB000008EB000008EB000008A4
:1000900000000000EB000008EB000008EB00000887
:1000A000EB000008EB000008EB000008EB00000884
:1000B000F1380008EB00000800000000000000001C
:1000C0000448854600F0A2F800480047BB3F0008FE
:1000D000C046C046480800200448804704480047FE
:1000E000FEE7FEE7FEE7FEE7FEE7FEE7D1320008A7
:1000F000C100000830B50B46014600202022012433
:1001000009E00D46D5409D4205D31D469540491B4B
:100110002546954040191546521E002DF1DC30BD94
:10012000F0B51FB40646002082B005464024019178
:1001300000901BE0019922460F46304600F054F82B
:10014000049A059B801A994110D3104619462246FD
:1001500000F03AF8361A8F4101972246012000211B
:10016000009F00F031F838184D4100902046641E81
:100170000028DFDC019B00982946324607B0F0BD1D
:1001800003460B439B0703D009E008C9121F08C0B0
:10019000042AFAD203E00B780370401C491C521E5B
:1001A000F9D27047D2B201E00270401C491EFBD266
:1001B00070470022F6E710B513460A460446194672
:1001C000FFF7F0FF204610BD10B5202A04DB0146E2
:1001D000203A9140002010BD914020239C1A0346F4
:1001E000E3401943904010BD10B5202A04DB0846B7
:1001F000203AD040002110BD0B46D340D0402024EF
:10020000A21A91400843194610BD0000064C012572
:10021000064E05E0E36807CC2B430C3C98471034AE
:10022000B442F7D3FFF750FF684800088848000839
:1002300010B5102000F014FC402000F011FCFF204D
:10024000013000F00DFC10BD1FB500230C46DB4350
:10025000022203A902930192009101230246AA21DE
:10026000202000020030000200300002903000F038
:10027000B8FD69468989218004B010BD03B583B0FB
:100280000023DB43022204A902930192009101237F
:100290000246AA21202000020030000200300002A5
:1002A000903000F04AFE05B000BDF8B500270646C4
:1002B000044640360097307D0D4601280FD00120BE
:1002C0003075206802F093FA00280AD0A06D202132
:1002D0000843A0650127002030753846F8BD02208C
:1002E000F8BD686802287ED001222169D2079142B8
:1002F00002D0121D914206D120682968826A490302
:10030000490B0A436EE0C206D20E0F20216E9040C8
:1003100081432868430302D0C3074BD102E0400069
:10032000C00E48E0830701D5012044E0430701D512
:10033000022040E0030701D503203CE0C30601D5BD
:10034000042038E0830601D5052034E0430601D5BA
:10035000062030E0030601D507202CE0C30501D5B7
:10036000082028E0830501D5092024E0430501D5B4
:100370000A2020E0030501D50B201CE0C30401D5B1
:100380000C2018E0830401D50D2014E0430401D5AE
:100390000E2010E0030401D50F200CE0C30301D5AB
:1003A000102008E0830301D5112004E0400301D5AB
:1003B000122000E000209040014321666968E26954
:1003C0008808401C904210D820682B68826A9C469E
:1003D000C906C90E0F238B409A4363469B001B0F2F
:1003E0008B401A4300E054E082622168AB682868C1
:1003F0004A690002824318404001400902434A61B1
:100400002868002800DB66E740221202013212024F
:10041000273212020832116807239B051940B023C6
:100420001B0410331B0298421ED10B021CD4C002C5
:100430000143104602F0DFF9032109020D310902E0
:1004400040312020000200300002003000021C3049
:100450000068FFF74FFE0C21401C484300E0401E9F
:1004600000900028FBD136E7B8231B0440331B0261
:10047000984203D1CB0101D4800208E0B4231B04CD
:1004800020331B029842BED14802BCD4580201431B
:1004900034E001212069C907884202D0091D884241
:1004A00006D120682968826A4903490B8A4382621F
:1004B00028680028A7DA40221202013212022732ED
:1004C00012020832116807239B051940B0231B0450
:1004D00010331B02984201D1C0020EE0B8231B0466
:1004E00040331B02984201D1800206E0B4231B0472
:1004F00020331B02984286D140028143104602F00D
:100500007AF9E8E6FEB50027044601973E460297D1
:100510000097002805D02546A06D2035002802D080
:1005200007E00120FEBD204600F028F9E6655420D2
:10053000065520688168C900C90F1ED181688022D4
:1005400012061732914301221207114381600321E1
:1005500009020D3109024031202000020030000262
:10056000003000021C300068FFF7C4FD4000801C12
:1005700000E0401E00900028FBD120688168C9007F
:10058000C90F08D1A16D10221143A165E16D0122AF
:100590001143E165174602F02AF9A16DC90601D49D
:1005A000002804D0A06D10210843A065C7E0A06D0D
:1005B000FF210131884302210843A065206802F031
:1005C00012F900287AD1217EA06889030843617E50
:1005D000CA03A17E4B031A431043226B002A01D0A9
:1005E000012212031043E26810432269002A02DA52
:1005F0005200520801E00122520510432A7B5200AA
:100600001043019A10432A78012A09D1002926D0E3
:10061000A16D20221143A165E16D01221143E16525
:10062000616A002906D0FF23C1331940A26A014341
:10063000104608432268D16801231B02FD331B02C8
:10064000FE3399430143D1606168029A890F89079B
:10065000E06C0A4310432A7F012A04D00CE00121F8
:1006600009040843DCE7636C226C491C1A43A36C41
:100670000B4311461943084322681169E0231B0408
:1006800003331B02FD339943014311610321606869
:100690008907884212D0990788420FD049008842C2
:1006A0000CD04021090201310902273109028B686F
:1006B0000F2292049343104003438B600021626B2E
:1006C000206802F09FF807210902FF310902FF317B
:1006D00009020431A26B206802F094F80F2021690E
:1006E000C04300291CD00122520591420AD1216841
:1006F0008A6A227F9200121FD206D20E9040226E8A
:100700001043886220684069616B4007400F88424F
:100710000BD1E665A06D80088000401CA0650FE04D
:1007200021688A6A02438A62ECE7A06D022188434D
:1007300010210843A065E06D01210843E065012711
:100740003846FEBD4021090210B50131090200689A
:1007500024310902884210D14020000202300002F8
:1007600010300002403001680122120591430160FF
:1007700005200221000700F0C9F810BD10B586B0B1
:10078000044614216846FFF714FD40210902013197
:100790000902243120680902884226D14020000243
:1007A00002300002103000024030026801210905C9
:1007B0000A430260006808400590402000020230B1
:1007C000000210300002416B012211434163406B73
:1007D00069461040059002200090032001900020FF
:1007E00002900520000700F082F906B010BDF0B5B8
:1007F000002808D0014620314A79022A05D0042277
:10080000C263002008710120F0BD026813680E2445
:10081000A3431360426C1468FF2301339C431460AC
:1008200002681468640864001460402212020232F4
:1008300012045568066C1C24264001242746B74044
:100840003D435560826CC56C5560026D002A05D031
:1008500015689D431560826D406D42604C710020AB
:100860000871F0BDF8B50024024620325179022902
:1008700003D00421C163012430E001680B680E2518
:10088000AB430B6001680B685B085B000B60416C5D
:100890000B68FF250135AB430B6040210902023193
:1008A00009044D68066C1C231E4001231F46B740F7
:1008B0003D434D60816CC56C4D60016D002906D0D3
:1008C0000E681D02AE430E60416D856D4D60537123
:1008D00000211171816B002900D088472046F8BDA6
:1008E00070B5044600F0CFF90546601C08D0202002
:1008F000000200300002003000021030007824189E
:1009000000F0C1F9401BA042FAD370BDF0B500233E
:1009100072E001249C4022460A406CD040252D0202
:1009200002352D029E081835B6002D0275192F6E5E
:10093000AC469D07EE0E0F25B540AE463D4005275F
:100940003F07B84201D1002718E050273F04043781
:100950003F02B84201D1012710E050273F04083779
:100960003F02B84201D1022708E050273F040C376C
:100970003F02B84201D1032700E00527B740AF424C
:100980001ED140263602023636021836360280362E
:100990003568954335607568954375604026360225
:1009A000023636021836360275689543756035682A
:1009B0009543356065462D6E7246954362461566D1
:1009C00005685E000322B24015430560DD08AD00F6
:1009D0002D182E6AAC465D07EF0E0F25BD40AE43C5
:1009E00065462E628568954385604568A5434560E8
:1009F000C4689443C4605B1C0A46DA4089D1F0BDE8
:100A000010B5044603F0C4FA102C14D0402C1AD0B0
:100A1000E01FF93807D008200002003000024630FD
:100A20000002783019E00820000200300002463051
:100A30000002603011E00820000200300002463061
:100A40000002303009E04168002088470820000299
:100A50000030000246300002483002F055FF10BD61
:100A600070B540252D0202352D02183504462D02A1
:100A7000E868204203D0EC60204600F008F82869BE
:100A8000204203D02C612046FFF7BAFF70BD10B59D
:100A9000044603F07DFA102C14D0402C1AD0E01F2D
:100AA000F93807D00820000200300002463000026A
:100AB000203019E008200002003000024630000219
:100AC0000C3011E008200002003000024530000226
:100AD000E43009E041680120884708200002003026
:100AE000000245300002F83002F00EFF10BDF0B5F4
:100AF00000230324B6E02A4601259D402A4073D0F6
:100B00000E79B607B60F012E01D0022E16D18668D7
:100B10002746B4465E00B646B7406646BE43B44676
:100B2000CF687646B7406646374387604668AE432F
:100B30000D79ED06ED0F9D40354345600D79ED4390
:100B4000AD0708D0C5685F002646BE40B5438E6835
:100B5000BE402E43C6600D79AD07AD0F022D0ED1FC
:100B6000DD08AD002D18AC462D6A5E07F60E0F2786
:100B7000B740BD430F69B7402F4365462F620568F4
:100B80005F002646BE40B5430E79B607B60FBE409D
:100B90002E4306604D68AD03AD0F62D040252D0297
:100BA00002352D029E081835B6002D027519AC4687
:100BB0002D6E9E07F60E0F27B740BD4305273F0752
:100BC000B84201D1002719E050273F0404373F0203
:100BD000B84201D1012711E050273F0408373F02F6
:100BE000B84202D1022709E03BE050273F040C370E
:100BF0003F02B84201D1032700E00527B7402F4349
:100C000040252D0202352D02183566462D02376625
:100C10002D684E689543F60200D5154340273F02E4
:100C200002373F0218373F023D607D684E689543AA
:100C3000B60200D515437D6040252D0202352D02F8
:100C400018352D0280356E684F689643BF0300D576
:100C500016436E602E684F689643FF0300D5164317
:100C60002E605B1C0A681546DA4000D043E7F0BDF1
:100C70000069084000D001207047002A01D081613E
:100C8000704781627047202000020030000200306F
:100C9000000210308068704770B5024640325378C9
:100CA000202B1CD11378012B19D00123137024247D
:100CB0005470046825689D432560046825681E03F8
:100CC000B5432560046825680D4325600068016808
:100CD00019430160202050700020107070BD022068
:100CE00070BD70B5024640325378202B1BD113786B
:100CF000012B18D0012414702423537003681D683D
:100D0000A5431D6005682B680F263602B343090210
:100D10001943296000680168214301602020507058
:100D20000020107070BD022070BD70B5040006D0A8
:100D30002546403568780026002802D005E00120CD
:100D400070BD2E70204600F09EF924206870206847
:100D500001684908490001600F216068090688435D
:100D60002168086121688A680120C00382438A6083
:100D7000E168012909D02122A16892021143226869
:100D80009160E168022903D006E0A1680143F6E71B
:100D900001212268C902516021684A6802231B04AC
:100DA00080331B021A434A602168CA688243CA60C2
:100DB000616920690843A169090208432168C86084
:100DC000216AE069084321680860206801680122FF
:100DD000114301606664202068702663AE700020B5
:100DE00070BDFFB5054604464035687883B02028BD
:100DF00078D10C98002814D00D98002811D02878AC
:100E000001286FD001202870FFF73DFF074601221F
:100E100000901923D103204601F070FC002877D1FF
:100E200003E001204002606472E0222068704020EC
:100E3000A870002666640C9860620D9860856663F1
:100E40000E980090019704A90EC9204601F0DBFB23
:100E5000002801D02E705BE0618D802000042430DA
:100E60000002FF2905D9FF22228501231B060090DD
:100E700006E0618D21850090208D0123C2B25B06C2
:100E80002046049901F021FC00970022042120460D
:100E90000E9B01F033FC00283AD12068406A616A59
:100EA0000870606A401C6062208D401E81B22185FE
:100EB000608D401E6085608D00281FD000291DD1E7
:100EC00000970022802120460E9B01F017FC00288D
:100ED0001ED1608DFF2806D9FF22228501231B0623
:100EE000009607E027E0608D20850096208D012385
:100EF000C2B25B062046049901F0E7FB608D002832
:100F0000C2D13A4620460E9901F01FFC002802D0BB
:100F1000012007B0F0BD20682021C161206842682F
:100F2000FE231B04E8331B021A4042606970AE7056
:100F30002E700020EDE70220EBE7FFB505460446E2
:100F40004035687883B0202872D10C98002814D0DE
:100F50000D98002811D02878012869D00120287028
:100F6000FFF791FE0746012200901923D103204686
:100F700001F0C4FB002871D103E00120400260644D
:100F80006CE0212068704020A870002666640C98F0
:100F900060620D98608566630E980090019704A9C1
:100FA0000EC9204601F060FB002801D02E7055E0EC
:100FB000608DFF2805D9FF22228501231B0600969C
:100FC00006E0608D20850096208D0123C2B25B066D
:100FD0002046049901F079FB3A4620460E9901F02B
:100FE000DAFB00283AD1606A216800788862606A7A
:100FF000401C6062608D401E6085208D401E80B266
:101000002085618D00291FD000281DD10097002266
:10101000802120460E9B01F071FB00281ED1608DBF
:10102000FF2806D9FF22228501231B06009607E030
:1010300027E0608D20850096208D0123C2B25B06DB
:101040002046049901F041FB608D0028C4D13A4646
:1010500020460E9901F079FB002802D0012007B04C
:10106000F0BD20682021C16120684268FE231B0476
:10107000E8331B021A4042606970AE702E70002087
:10108000EDE70220EBE710B586B004461421684670
:10109000FFF78FF84021090458312068090288427F
:1010A00023D1402424020234240210342402616B30
:1010B000012001436163616B0290014005910321AE
:1010C0000020C90203900091062012210490019192
:1010D000052069460007FFF70AFDE16B0120800546
:1010E0000143E163E16B0140059106B010BD202092
:1010F00000020030000200300002103081680278E7
:101100008918816070474020000210B5023000024B
:101110000024203000020168821511430160032081
:1011200000F008F8002801D0012401E000F02EF8BA
:10113000204610BD70B50546002420263602003634
:101140003602003636021036317800291BD07D2059
:10115000C000FEF7CFFF0146202000020030000251
:10116000003000021C300068FEF7C4FF00F0ADFC48
:10117000002808D1042D06D200222946401E00F086
:101180002EF8756000E00124204670BD402000026A
:1011900002300002103008B5000240300168012220
:1011A00011430160006810400090402000020230AE
:1011B000000210300002C26B01040A43C263C06B1C
:1011C0000840009008BD002808DBC106C90E0120B8
:1011D0008840E0210904E13109020860704710B538
:1011E00002F0A2FB10BD10B5402424047034240288
:1011F000216803225202914301432160C11FFF393C
:10120000FA3918D12020000200300002003000021C
:101210001C300068062148430F21090242310902AF
:101220004031FEF767FF401C02E0002805D0401E59
:1012300061694905F9D4002010BD032010BDF8B53F
:1012400040252D02023504462D02006810352D027E
:1012500000268003403500286CDA4020000202306E
:101260000002002710300002C06BC0000DD44020E7
:1012700000020230000210300002C26B01040A4377
:10128000C263C06B0840012700904020000470300A
:1012900000020168821511430160FFF7F4FC009021
:1012A00005E0FFF7F0FC0099401A02282AD84020F8
:1012B0000004703000020068C005F2D5E86903211F
:1012C000090208400FD0616A81420CD0E86903210D
:1012D0000902EA698843012109040A43EA61EA69CB
:1012E0008A43EA61E861C00711D0FFF7CCFC0090A7
:1012F0000AE0FFF7C8FC0099411A13200002883069
:10130000814201D9032609E0E8698007F1D5E8693F
:10131000032109028843616A0843E861002F09D06C
:10132000402000020230000210300002C26B0104B3
:101330008A43C2632078C00705D068696168800865
:101340008000084368612078C00606D568690321DB
:1013500089028843A168084368612088800506D512
:1013600068690321890488436169084368612088AA
:10137000400506D56869032109058843A16908432A
:1013800068612078800606D56869032109038843CF
:10139000E168084368612088400415D56869E169FF
:1013A00080008008084368610121E069890788425C
:1013B0000AD1402000020230000210300002C16851
:1013C000012212041143C1602068800214D56869AB
:1013D00001218905226A884310436861206A884296
:1013E0000AD1402000020230000210300002C16821
:1013F000012212061143C1602088000516D56869D4
:101400000321890388432169084368610121206918
:10141000890388420AD140200002023000021030C5
:101420000002C168012212041143C1603046F8BDB8
:10143000F8B50F46060055D040252D0202352D0285
:1014400020352D0228684007400FB84215D2286881
:10145000C008C00038432860FFF715FC044607E0C9
:10146000FFF711FC011B132000028830814275D860
:1014700028684007400FB842F2D1402424020234C9
:101480003068240210348107240200290DDA400755
:1014900004D5A068072109030843A060A0680F21B4
:1014A00009028843B1680843A0603078C00739D08A
:1014B000706801280FD0022810D0002814D04021D5
:1014C00009020231090210310902403103280ED00D
:1014D000C969890704E02168890301E0216889015D
:1014E000002906DB0120F8BD21684905F8E7096AF3
:1014F000EFE7A168C908C9000143A160FFF7C3FB7A
:10150000009008E0FFF7BFFB0099411A132000028A
:101510008830814222D8A068382108407168C9000B
:101520008842EFD128684007400FB84223D94020B5
:10153000000202300002203000020168C908C90020
:1015400039430160FFF79FFB054609E0FFF79BFB6E
:10155000411B132000028830814201D90320F8BDCD
:1015600040200002023000022030000200684007E4
:10157000400FB842EAD13078400706D5A06807216D
:1015800009038843F1680843A06000F040F8A168AF
:101590003C22890911400822120200321202443210
:1015A00012027032515CC906C90EC84020210902DE
:1015B00000310902003109021C31086020200002BC
:1015C000003000020030000214300068FFF7B2FD66
:1015D000F8BD2020000200300002003000021C3064
:1015E00040210902023109021031090200688968AC
:1015F0004904490F890008221202003212024432C3
:101600001202B032515CC906C90EC840704710B50D
:10161000402424020234240210342402A068F4225C
:10162000120280062432400F1202002816D0A06851
:101630008006410F501001290FD0A1688906490F7B
:10164000022912D0A0688006400F042823D0A06889
:101650008006400F032821D0002010BD2068012102
:101660008004400F8140104612E0E1688B07E1687A
:101670009B0F4906490F491C032B00D01046FEF76B
:1016800039FDE1684904490E4843E168490F491CA6
:10169000FEF730FD10BD0120C00310BD7D2000020B
:1016A00010BDF8B5040074D040252D020235207815
:1016B0002D021035C00738272D02002847D0A86812
:1016C000E96838408907890F102802D008280BD014
:1016D00001E0032908D001206268000482420AD197
:1016E00029680143296016E0286880032FD56068C7
:1016F0000028D8D02BE0052301211B0489049A423D
:1017000003D12A680A432A60EAE72A6882432A60EA
:10171000286888432860606800280CD0FFF7B3FA77
:10172000064604E0FFF7AFFA801B642878D82868E3
:101730008003F7D50BE0FFF7A6FA064604E0FFF7B3
:10174000A2FA801B6428F1D828688003F7D4207897
:10175000800777D5A968E868394082070720920F8B
:10176000C002102902D0002914D001E0022A11D0B1
:10177000E168002955D02968814320690143296027
:101780002868FF21013108432860FFF77CFA0646EC
:101790003AE0B2E02A68520502D5E268002AA8D0F1
:1017A0006A687F231B029A4363691B021A436A60BB
:1017B000002917D1296881432069014329602868DD
:1017C00001218004400F8140F420000224300002F7
:1017D000FEF790FC202109020031090200310902C4
:1017E0001C3108602020000200300002003000029E
:1017F00014300068FFF79EFC00287ED122E0FFF73E
:1018000042FA801B022891D828684005F7D56868FD
:101810007F2109028843616909020843686011E079
:10182000AFE02968FF20013081432960FFF72BFAE0
:10183000064604E0FFF727FA801B0228E3D8286851
:101840004005F7D44026360202363602207810369C
:1018500036020007403600282FDAA8688006400FBD
:1018600003280AD0A069002817D0306A0121084354
:101870003062FFF708FA07460BE0306A80071CD594
:10188000A06900288BD018E0FFF7FDF9C01B0228E3
:1018900077D8306A8007F7D50FE0306A40084000FB
:1018A0003062FFF7F0F9074604E0FFF7ECF9C01BE0
:1018B000022866D8306A8007F7D42078400778D5A8
:1018C000A86800278006400F04281CD0E86BC000E1
:1018D00008D4E96B012000070143E963E96B01408B
:1018E0000127009140200004703000020168C90502
:1018F0001DD401688215114300E088E00160FFF704
:10190000C2F900900CE0F069800752D5A068002869
:101910007DD04EE0FFF7B7F90099401A022830D881
:1019200040200004703000020068C005F2D5A168B4
:10193000012910D00420052912D0F1694908490075
:10194000F161F1698143F161A06800281AD0FFF7C5
:101950009AF9009011E0F06901210843F061F3E782
:10196000F1690143F161F6E7FFF78DF90099411A3A
:10197000132000028830814270D8F0698007F3D5C7
:1019800010E06BE0FFF77FF9009008E0FFF77BF9CC
:101990000099411A13200002883081425ED8F06914
:1019A0008007F3D4002F04D0E86B01210907884396
:1019B000E863E06900284BD0A9688906490F02292D
:1019C0005AD001263606022806D02868B04328607F
:1019D000FFF759F9044643E02868B0432860FFF751
:1019E00052F9074604E0FFF74EF9C01B022835D82C
:1019F00028688001F7D4616A206AA26A0843E16A14
:101A0000120211430843216B0843616B00E058E068
:101A10000843E96811221202C13212028032120216
:101A20008C3211400843E860286830432860E86839
:101A3000012109070843E860FFF725F9044604E09F
:101A4000FFF721F9001B022808D828688001F7D584
:101A500039E0FFF718F9001B022801D90320F8BD6F
:101A600028688001F5D4E8681121090201310904D0
:101A700003318843E86026E00128F0D0E868226A54
:101A80008107890F91421CD17021626A0140914205
:101A900017D17F21A26A090201401202914210D19E
:101AA0001F214904E26A014091420AD107214906F7
:101AB000226B0140914204D1400F616B4007884284
:101AC00001D00120F8BD0020F8BDFF21090610B5A6
:101AD0000131401EC84201D9012010BDE024240478
:101AE000E034240260610321081F01F01DFF002083
:101AF000A06107202061002010BD7047704770472B
:101B0000F0B5034620331A7F012A30D001221A771C
:101B100002225A7704686268A56840273F020137AD
:101B20003F022C373F02BC4205D116460F22120558
:101B300096434A6832437026B2430E681643666085
:101B40000068B84209D001229207904205D0402295
:101B5000120404321202904204D180228968954313
:101B6000294381600120587700201877F0BD0220BA
:101B7000F0BD70B5040005D025462035687F0028EB
:101B800002D006E0012070BD00202877204600F03A
:101B900016F802206877211D206801F0A5FB0122BC
:101BA00040342272AA77EA7722706270A270E270E3
:101BB00022716271A271E2716A77002070BD08B56E
:101BC000006801218907884214D1402000020230B8
:101BD000000210300002C16B01221143C163C06BCF
:101BE00010400022009011460F20FFF7F8FA0F2056
:101BF000FFF7E9FA08BD014620314A7F012A01D0EA
:101C00000120704702224A770168CB680122134302
:101C1000CB60402109020131090200682C31090220
:101C2000884208D09107884205D040210904043138
:101C30000902884209D1816801231B040733194036
:101C4000062905D0DB1F994202D0016811430160CB
:101C500000207047F8B5054604462035287F002649
:101C6000012818D001272F77022068772268906812
:101C700031231B02FF331B027733984390600868BF
:101C8000502838D00EDC20284FD006DC00284CD05D
:101C900010281ED149E00220F8BD302845D0402848
:101CA00017D13AE060282ED0702818D001221203F4
:101CB000801A0FD090420CD1CB684A68896820689E
:101CC00001F05FFB2068816801229203114381606B
:101CD00000E001266F77002028773046F8BDCB68FA
:101CE0004A688968206801F04CFB2168886877227F
:101CF00010438860EEE7CA684968206801F056FB27
:101D00005021206806E0CA684968206801F05FFB3E
:101D10006021206801F040FBDCE7CA684968206860
:101D200001F044FB40212068F4E722680146104698
:101D3000F0E7704770B50446006801690025C943A3
:101D40008907002915DBC168C943890711D4E91E39
:101D5000016101202077206880698007204602D039
:101D6000FFF7E7FF04E000F0AAF8204600F0A8F82B
:101D7000257720680169C943490717D4C168C94359
:101D8000490713D40421C943016102202077206848
:101D900080698005800F204602D0FFF7CAFF04E06B
:101DA00000F08DF8204600F08BF825772068016957
:101DB000C943090716D4C168C943090712D40821C9
:101DC000C9430161042020772068C069800720464C
:101DD00002D0FFF7AEFF04E000F071F8204600F0FB
:101DE0006FF8257720680169C943C90617D4C1680F
:101DF000C943C90613D41021C943016108202077C3
:101E00002068C0698005800F204602D0FFF791FF4F
:101E100004E000F054F8204600F052F825772068DE
:101E20000169C943C90708D1C168C943C90704D1B9
:101E3000891E0161204600F044F820680169C94309
:101E4000090609D4C168C943090605D48021C943DC
:101E500001612046FFF752FE20680169C943C905A8
:101E60000ED4C168C94309060AD4FF210902FF3113
:101E70000902FE310902FF3101612046FFF73DFEF4
:101E800020680169C943490609D4C168C9434906A4
:101E900005D44021C9430161204600F01FF82068A5
:101EA0000169C943890609D4C168C943890605D4B3
:101EB0002021C94301612046FFF721FE70BD704714
:101EC000704720210902003109020031090208315E
:101ED0000878002801D0401E08707047704710B580
:101EE000014680310A78012A15D001220A70242285
:101EF0004A60026813681468640864001460012270
:101F00005207934300224266006803602020486025
:101F10000A70104610BD022010BD7047704770B5A2
:101F2000044605468034207801281AD0012020700C
:101F30002420606028680668026852085200026027
:101F40002868826807235B069A430A438260284612
:101F500001F050FA286806602020606000202070A0
:101F600070BD022070BD70B50446054680342078EF
:101F7000012819D00120207024206060286806689C
:101F8000026852085200026028688268D200D208B3
:101F90000A438260284601F02DFA28680660202056
:101FA00060600020207070BD022070BD70477047D7
:101FB0007047F8B503680446D96918689A68082517
:101FC0002D020F350E462E4025468035002E7ED040
:101FD00010273F06013716463E4004273F040137CD
:101FE0003F0220370740374372D0CF0706D0C705DE
:101FF00004D501271F62EB683B43EB608B0708D5D4
:10200000D30706D0276802233B62EB6804273B43D3
:10201000EB604B0708D5D30706D0276804233B6243
:10202000EB6802273B43EB600B0709D520230340F5
:10203000334305D0266808233362EE681E43EE6002
:102040000B0509D5430107D501232668DB0233625E
:10205000EB6820263343EB60EB68002B49D0890600
:102060000AD520210840C9050A40104304D0216F39
:10207000002901D020468847E86821688968490618
:1020800002D42821084239D0204601F07DFA216887
:10209000886840062ED5EFF31080012282F3108865
:1020A0008B68402293438B6080F31088E06F002898
:1020B00020D00821090200310902353109027531A9
:1020C0008163E06FFEF7CEFB002812D001E003E051
:1020D0001AE0E06F816B0BE08E0615D501272026F4
:1020E0003F07064017403E430ED0216FB2E0204626
:1020F0008847F8BD2046FFF75BFFF8BD2046FFF795
:1021000057FF0020E860F8BDE66E012E7DD1CE06B7
:102110007BD5C60679D510221A62236898682646B0
:1021200040064036002847DAE16F0868406800043E
:10213000000CE8D0B78B8742E5D9F08308680068C7
:10214000800634D4EFF31080012181F310881968E0
:102150001701B943196080F31088EFF31080012153
:1021600081F3108821688B685B085B008B6080F3CB
:102170001088EFF31080012181F3108821688B68AB
:102180004027BB438B6080F310882020A86000208C
:10219000E066EFF31080012181F3108821680B685D
:1021A00093430B6080F31088E06FFEF720FBB08B49
:1021B000F18B401A81B234E0B08BF18B401A81B2BE
:1021C000F08B00289FD000299DD0EFF310800126CE
:1021D00086F310881E68FF272137BE431E6080F3F8
:1021E0001088EFF31080012383F3108823689E6822
:1021F00010273F060137BE439E6080F310882020E1
:10220000A8600020E066206700E00EE0EFF3108099
:10221000012383F3108823681D6895431D6080F3B4
:1022200010882046FFF779FEF8BDCE0208D5560289
:1022300006D50120000518622046FFF7B8FEF8BD5C
:102240000E060BD501278026FF0506403A401643AF
:1022500004D0616F002900D049E7F8BD4A0614D5C3
:10226000420612D52046EFF31081012282F3108836
:102270001C68402294431C6081F31088202169600F
:102280000021416700F017F9F8BD0A0205D54200A8
:1022900003D52046FFF78AFEF8BDC901FCD500280A
:1022A000FADA2046FFF73AFEF8BD70B5040005D013
:1022B000254680356868002802D006E0012070BD00
:1022C00000202870204600F026F82420686020684E
:1022D0000168490849000160204601F087F901289A
:1022E000EDD0A06A002802D0204601F0A8F82068AE
:1022F00041680922D20291434160206881682A2204
:1023000091438160206801680122114301602046E9
:1023100001F0FAF870BD30B587B004461421684664
:10232000FDF747FF236840244020240200020134C7
:10233000023024020002383410302402002200024D
:102340000221A34221D140231B0202331B0210337E
:102350001B0240331D684C0325431D601B6823404E
:102360000593436B0B434363406B6B4608400590FA
:10237000C02007C3502000040430039269460002C5
:102380000492FEF7B4FB07B030BD4024240444346B
:102390002402A342F7D1C46B01235B041C43C46332
:1023A000C46B1C400594446B01231C434463406B85
:1023B0006C46184005900C200BC405200CC46946DF
:1023C0000007FEF794FB002211461C20FEF707FFD2
:1023D0001C20FEF7F8FED6E7FFB506460446803619
:1023E000706883B00D46202863D1002D0CD005986D
:1023F000002809D00120A1680003814207D120698B
:10240000002804D1E80702D0012007B0F0BD3078E1
:1024100001284ED0012030700020F0602120706033
:10242000FEF731FC0190274640370598B8820598A1
:10243000F8820120A1680003814202D120690028AE
:1024400004D0029500250020307018E00020029092
:10245000F9E706980090002280212046019B01F0B8
:10246000DEF9002818D10298002817D021680078DA
:1024700088620298401C0290F88A401EF882F88A0E
:102480000028E6D106980090002240212046019BBA
:1024900001F0C5F9002808D00320B6E72888216894
:1024A000C005C00D8862AD1CE6E7202070600020EA
:1024B000ABE70220A9E770470820000200300002C5
:1024C00046300002A83001F01FFAF5E701688A697A
:1024D000D243920701D400228A6200688169C9430D
:1024E000C90703D081690122114381617047F7B5A3
:1024F0000446006882B0816900262546C906403539
:1025000037460092002949DA1021C16136E003986C
:10251000401C33D0FEF7B7FB0099411A0398814263
:1025200001D800282AD121684A6801208003AB78AD
:1025300002409C468B69DB431B041AD4824218D0AC
:102540006246202A15D04A6802434A60FEF79BFB88
:1025500000900EE0FEF797FB0099401A192808D961
:10256000616C20200143616468700020A8702870AD
:10257000012620688069C0438006EBD4206880690A
:10258000C043800602D5002EC1D004E0002E02D147
:1025900021682020C861042007430126216888693A
:1025A000C20504D5012217431202CA610126410562
:1025B00008D508210F432268C901D1610126800591
:1025C00002D40AE0800506D50220074321680002F4
:1025D000C861012601E0002E12D02046FFF776FFE9
:1025E00020684168FE221204E83212021140416064
:1025F000606C38436064202068700020A8702870E8
:10260000304605B0F0BDF8B5044680200004203007
:10261000164600021D46DAB20090079F00232046AE
:1026200000F053F83A462046069900F0B4F8002826
:1026300018D12846F5B2012809D02168300A8862ED
:102640003A462046069900F0A6F800280AD12068EC
:1026500085620097002240212046069B00F04EF83C
:10266000002800D00120F8BDF8B504468020000401
:102670002030164600021D46DAB2C3020090079FC2
:10268000204600F022F83A462046069900F083F8EA
:10269000002818D12846F5B2012809D02168300A4F
:1026A00088623A462046069900F075F800280AD15B
:1026B000206885620097002280212046069B00F05A
:1026C0001DF8002800D00120F8BD890510B5890D3E
:1026D00012041143029C19430268214349005068C7
:1026E0004908630D03242402FF34240263342402C6
:1026F000FF34234398430843506010BDF8B51D468E
:1027000017460E46044609E0681C07D0FEF7BBFAE0
:102710000699401AA8420BD8002D09D0206881697B
:10272000304688430FD00020B842EDD00020F8BDDD
:10273000616C202001436164403460700020A0700F
:1027400020700120F8BD0120EEE770B516460D4659
:1027500004460FE0324629462046FFF7C8FE00280F
:1027600001D0012070BDFEF78EFA801BA84208D868
:10277000002D06D020688069C0438006EAD400207E
:1027800070BD616C202001436164403460700020A2
:10279000A0702070E5E770B516460D46044611E0BE
:1027A000324629462046FFF7A2FE002801D001202C
:1027B00070BD681C06D0FEF766FA801BA84208D8D8
:1027C000002D06D020688069C0438007E8D400202F
:1027D00070BD616C20200143616440346070002052
:1027E000A0702070E3E78068C007C00F7047806862
:1027F0004007C00F7047026807239B059A430A43AE
:102800000260704710B543690424214007248C40BE
:10281000A3438A401343436110BD3EB540210902E2
:10282000002401310902243100940194090220207E
:10283000000200300002003000022C3002940160DF
:102840008460C4600905046141600421416104762B
:10285000447684760121C161014620310C704462C6
:1028600084620C730463446384630C77C464FDF76F
:1028700049FE002801D072B6FEE7042000060230AF
:10288000019469460294009020200002003000026A
:10289000003000022C30FDF708FD002801D072B690
:1028A000FEE73EBDF0B587B014216846FDF781FC18
:1028B000402000020230000210300002416B01246F
:1028C00021434163416B21400591416B022529431E
:1028D0004163416B29400591426B04210A434263E5
:1028E000406B002208400590052001210007FEF7FB
:1028F000C4F950200004043001222B210002FEF70D
:10290000BCF981210520012209020007FEF7B5F973
:10291000502000040830012240210002FEF7ADF9EA
:102920000520009401946946000703950294FEF780
:10293000DEF831264020360400276A46C1C2052051
:1029400069460007FEF7D3F80920009050200004E4
:10295000043001946946039502940002FEF7C7F81B
:102960002220694631C1502000040430694600022B
:102970000395FEF7BCF881200002694631C10520AD
:10298000694600070395FEF7B2F84020694631C159
:10299000502000040830694600020395FEF7A7F8AE
:1029A00010200090502000040430694601960294E3
:1029B0000002FEF79CF820026A46C1C250200004C3
:1029C000043069460002FEF792F800221146072003
:1029D000FEF705FC0720FEF7F6FB07B0F0BD40212F
:1029E000090410B55831090220200002003000020D
:1029F000003000029030016010210902703109029C
:102A00007D310902BC314160002181600161416179
:102A100081610122C161C2600162FEF786F900286E
:102A200001D072B6FEE70021202000020030000233
:102A3000003000029030FEF72FF9002801D072B666
:102A4000FEE70021202000020030000200300002DA
:102A50009030FEF746F9002801D072B6FEE710BDAF
:102A600010B5002488B000940121019402940394CD
:102A700004940594890720200002003000020030F1
:102A80000002DC3006940160F9210902FF31846004
:102A9000416009210461C16080218161FFF769F80B
:102AA000002801D072B6FEE70120000369460090BD
:102AB000202000020030000200300002DC30FFF76E
:102AC000C9F8002801D072B6FEE7049404A92020BA
:102AD00000020030000200300002DC300694FFF7F4
:102AE0000FF8002801D072B6FEE708B010BD4021F3
:102AF00009020131090210B5383109022020000213
:102B0000003000020130000228300160E12149025A
:102B1000416000218160C16001618161C161016228
:102B20000C22416242618162FFF7BFFB002801D0A5
:102B300072B6FEE70521490720200002003000029E
:102B4000013000022830FFF70EFA002801D072B6DB
:102B5000FEE7052149062020000200300002013076
:102B600000022830FFF7DBF9002801D072B6FEE73B
:102B70002020000200300002013000022830FFF760
:102B8000AEF9002801D072B6FEE710BD402109045D
:102B900010B544310902202000020030000201304B
:102BA0000002B8300160E1214902416000218160EA
:102BB000C16001618161C16101620C2241624261B7
:102BC0008162FFF772FB002801D072B6FEE710BDEC
:102BD000FEE77047F0B51D25DDB0B02208210902DF
:102BE0000031090242310902F83131A8FDF7C8FA73
:102BF000A022082109020031090243310902A8314B
:102C000005A8FDF7BDFA00206946088020A988863E
:102C100004462026360200363602003636020C36CE
:102C20003088641C81B2A4B20020FDF727FB002885
:102C30002AD10120FDF754FE3068010C0020FDF779
:102C40001DFB002820D100211E20FDF717FB0120CD
:102C5000FDF746FE2DA93020FDF7F6FA20A8808E5C
:102C6000C00711D0082000020030000247300002E7
:102C70005C3000F049FE69463620FDF7E5FA68460B
:102C8000808A13280ED06BE0052C07D9082000029B
:102C900000300002473000027430B3E10A20FDF733
:102CA0001FFEBDE7032003900026CB20000234184E
:102CB000A1B23E20FDF7E2FAA1B23E20FDF7DEFA16
:102CC0000120FDF70DFE0024F7003819410005A88A
:102CD000415A60004030C0B2FDF7D0FA0120FDF744
:102CE000FFFD641CA4B2082CEFD3761CB6B2092EEB
:102CF000DBD3CB242402093421463E20FDF7BEFA63
:102D000021463E20FDF7BAFA0120FDF7E9FD002437
:102D100005AE6000811980314030098AC0B2FDF7EC
:102D2000ADFA0120FDF7DCFD641CA4B2052CF0D344
:102D300000211E20FDF7A2FA0A20FDF7D1FD694609
:102D40000C20FDF781FA6846008800057ED5082032
:102D5000000200300002473000028C3000F0D4FD49
:102D600065242402533421463E20FDF787FA21468C
:102D70003E20FDF783FA0120FDF7B2FD64214020DB
:102D8000FDF77CFA0120FDF7ABFD0B2424025F3434
:102D900021464220FDF772FA0120FDF7A1FD6421D2
:102DA0004420FDF76BFA0120FDF79AFD21464620ED
:102DB000FDF764FA0120FDF793FDFF214820FDF7A0
:102DC0005DFA0120FDF78CFD232149024A20FDF721
:102DD00055FA00211E20FDF751FA0120FDF780FD74
:102DE00065242402523421463E20FDF747FA21464D
:102DF0003E20FDF743FA0120FDF772FD8321090211
:102E00004020FDF73BFA00211E20FDF737FA012094
:102E1000FDF766FD661E31463E20FDF72FFA31466E
:102E20003E20FDF72BFA0120FDF75AFDE921C901EB
:102E30004020FDF723FA0120FDF752FD40214220FA
:102E4000FDF71CFA0120FDF74BFD00E0CCE03E2130
:102E50000902FB314420FDF711FA0120FDF740FD86
:102E60002021090201314620FDF708FA0120FDF773
:102E700037FD062109027F314820FDF7FFF90021C7
:102E80001E20FDF7FBF90120FDF72AFD31463E200B
:102E9000FDF7F4F931463E20FDF7F0F90120FDF78A
:102EA0001FFD0221090212314C20FDF7E7F9002134
:102EB0001E20FDF7E3F90120FDF712FDFF208F3002
:102EC00069460880E61C31463E20FDF7D7F93146B9
:102ED0003E20FDF7D3F90120FDF702FD6946098880
:102EE0004420FDF7CBF90120FDF7FAFC412109024E
:102EF00005314620FDF7C2F90120FDF7F1FC122152
:102F0000090266314A20FDF7B9F900211E20FDF7BC
:102F1000B5F90120FDF7E4FC21463E20FDF7AEF9AE
:102F200021463E20FDF7AAF90120FDF7D9FC8621B4
:102F30004A20FDF7A3F90120FDF7D2FC86214C20A1
:102F4000FDF79CF900211E20FDF798F90120FDF7FF
:102F5000C7FC002431AE0620274647436520F15BBD
:102F600000025030081881B23E20FDF787F9652035
:102F7000F15B00025030081881B23E20FDF77EF967
:102F80000120FDF7ADFCB81981888078FDF776F94E
:102F90000120FDF7A5FC641CA4B2AC42DBD30021E8
:102FA0001E20FDF76BF965242402013421463E20E2
:102FB000FDF764F921463E20FDF760F90520FDF795
:102FC0008FFC69464020FDF73FF968460188E920FB
:102FD000C001814218D169464220FDF735F96846A3
:102FE00000884028F6D110E00398401E80B203907C
:102FF000002800D058E608200002003000024730C8
:103000000002A83000F080FCDEE069464420FDF7B5
:103010001BF9684601883E200002FB308142F3D153
:1030200069464620FDF710F9684601882020000215
:1030300001308142E8D169464820FDF705F968462C
:103040000188062000027F308142DDD169464C2094
:10305000FDF7FAF86846018802200002123081422A
:103060007ED165242402023421463E20FDF706F974
:1030700021463E20FDF702F90520FDF731FC6946A7
:103080004A20FDF7E1F868460088862868D169463D
:103090004C20FDF7D9F868460088862860D1641C6A
:1030A00021463E20FDF7EAF821463E20FDF7E6F8EE
:1030B0000520FDF715FC69464020FDF7C5F8684678
:1030C000008864284CD169464220FDF7BDF8684667
:1030D0000B24008824025F34A04275D16946442045
:1030E000FDF7B2F86846008864286DD1694646202D
:1030F000FDF7AAF868460088A04265D169464820D5
:10310000FDF7A2F868460088FF285DD169464A208D
:10311000FDF79AF86846018823204002814253D186
:1031200065242402053421463E20FDF7A7F82146F8
:103130003E20FDF7A3F80520FDF7D2FB69464420A9
:10314000FDF782F8684601880846FF388F383BD182
:1031500069464620FDF778F868460188412000E07E
:1031600032E00002053081422ED169464A20FDF747
:103170006BF868460188122000026630814223D134
:10318000002D29D0002425E0062027464743F15B87
:1031900065200002081881B23E20FDF76FF8F15B50
:1031A00065200002081881B23E20FDF767F805206F
:1031B000FDF796FBBF19B8786946FDF745F86946F3
:1031C000B8880988884203D00020C0435DB0F0BDB4
:1031D000641CA4B2AC42D7D3012189030020FDF7BF
:1031E0004DF800211E20FDF749F80520FDF778FB7A
:1031F00069463020FDF728F868460188FE20000265
:10320000FF300140684601803020FDF737F800218B
:103210001E20FDF733F80120FDF762FB202100207E
:10322000FDF72CF800211E20FDF728F80520FDF7FA
:1032300057FB0020CAE7704710B5FDF758FF10BDD7
:1032400030B59DB038216846FCF7B3FF00241894D0
:1032500019941A9428210EA81B94FCF7AAFF0120A8
:103260004002FDF7C0FF0225E801039000954020D1
:10327000059008200A9080030B90079500020C909F
:103280000895000104940D9009946846FEF709FA28
:10329000002801D072B6FEE7072018901A94022188
:1032A00019951B9418A8FEF7C3F8002801D072B630
:1032B000FEE74020000201300E900F9415940EA8F6
:1032C000FDF7BDFF002801D072B6FEE71DB030BD8E
:1032D000704710B5202000020030000200300002CC
:1032E000DC30FEF727FD10BDF0B5026840231B025D
:1032F000013340251B022D042C33012404351B020D
:10330000A4072D02984203D0A04201D0A84203D1C5
:103310007026B2434E6832434026402736023F02B1
:103320000136013736023F024436483736023F0243
:1033300098420DD0A0420BD0A84209D040242404CA
:1033400020342402A04203D0B04201D0B84204D1BC
:1033500003242402A243CC6822438024A2434C6964
:10336000224302608A68C2620A688262984203D07D
:10337000B04201D0B84201D1096901630121416124
:10338000F0BD30B58468FF252D021B021343AC430A
:103390000B432343836030BD826830231B047033AA
:1033A0009A430A4307210A438260704730B5036A93
:1033B000046A6408640004628469F025AC43120165
:1033C00022430A24A3430B438261036230BD30B51C
:1033D000036A1024A34303628469036A0F252D0343
:1033E0001203AC432243A024A34309011943826181
:1033F000016230BDF8B50446416E403400291BD04F
:1034000000688168806809014D0F400F0826360268
:10341000003636024436360268363746315C083F9D
:10342000385CC000FCF766FE6085785D715DC000A9
:10343000FCF760FE2085F8BD01206085FAE710B535
:10344000018DC90707D001684A6801235B049A43CC
:10345000C36A1A434A60018D890707D501684A6823
:1034600001231B049A43036B1A434A60018D4907E9
:1034700007D501684A6801239B049A43436B1A43AA
:103480004A60018D090707D501684A680123DB03FB
:103490009A43836B1A434A60018DC90607D50268B7
:1034A000916801231B039943C36B19439160018DFC
:1034B000890607D501688A6801235B039A43036C78
:1034C0001A438A60018D490612D503685A680121A2
:1034D0000905446C8A4322435A60426C8A4207D1F0
:1034E0000268516803235B059943836C194351605B
:1034F000018D090607D501684A680123DB04C06C09
:103500009A4302434A6010BDFEB505460026803549
:103510000446EE60FDF7B7FB0190206800680127C4
:103520003F02FF373F02FF373F020007FF37002807
:1035300009DA01210097002249052046019B00F08D
:103540006EF900280DD12068006840070BD50121D5
:103550000097002289052046019B00F060F90028B1
:1035600001D00320FEBD20206860A860E6662E70B2
:103570000020FEBD10B5806A002201464031CA839A
:10358000CA82FEF715FD10BD10B5EFF310810122C0
:1035900082F3108802681368FF242134A343136068
:1035A00081F31088EFF31081012282F31088026802
:1035B0009368102424060134A343936081F3108898
:1035C000C16E01290BD1EFF31081012282F3108823
:1035D000026813681024A343136081F3108820222B
:1035E00088210A500021C166016710BDF8B5044664
:1035F000016880682369402218431204E569636901
:103600008032002612022B4318430B6830252D040C
:1036100096352D020C35AB4303430B602168486897
:103620002B149843E368184348602168A0699142CD
:1036300001D0236A18438B68EE252D040B352D022B
:10364000AB4303438B602068C16A636A09090901BF
:103650001943C162402040210002090202300131B9
:10366000000209021030383100022368090240309C
:103670008B420AD140698007800F0CD0012838D0D6
:10368000022834D0032819D116E04021090444311E
:1036900009028B4201D1002111E093420ED1416910
:1036A0000320800201400AD001208002091A20D0A4
:1036B000091A1CD0814201D1082100E01021F42513
:1036C0002D0224352D0208273F0200373F024437E0
:1036D0003F0248370120C003934241D100290AD05C
:1036E000022911D0042909D0082938D10BE0022180
:1036F000E5E70421E3E7FDF76CFF01E0FDF787FF55
:10370000050001D181E00546606A4000395A28462B
:103710000091FCF7EFFC67687900791881426FD857
:10372000390381426CD3002328461946009AFCF7DE
:10373000F7FC020E09020302780811431818002250
:1037400051413A460023FCF7EBFC0F221202032101
:10375000FC3209021202411AFF32914253D94FE062
:10376000E269824229D1002906D0022907D0042922
:1037700007D0082944D108E0FDF72BFF03E02846D5
:1037800003E0FDF744FF00283FD0616A4900795A01
:10379000FCF7B0FC616840004A088018FCF7AAFCFE
:1037A000FF22014612021039EF32914228D8511CF3
:1037B00001400007400F084325E0002906D00229F8
:1037C00007D0042907D008291AD108E0FDF701FF26
:1037D00003E0284603E0FDF71AFF002815D0616AD0
:1037E0004900795AFCF786FC61684A088018FCF7A2
:1037F00081FCFF22014612021039EF32914201D9B9
:10380000012602E080B22168C860204601214030D4
:10381000418501850020206760673046F8BDFFB50F
:1038200081B005461746044680350A9E54E0701C58
:1038300052D0FDF728FA0499401AB0422FD8002E32
:103840002DD020680168490746D5C069C0430005EE
:1038500042D401202168C0020862EFF310800121E8
:1038600081F3108821680B68FF22A13293430B601B
:1038700080F31088EFF31080012181F31088216814
:103880008A68520852008A6080F31088202068609D
:10389000A860E86000202870032005B0F0BDEFF3B9
:1038A0001080012181F3108821680A68FF23A13369
:1038B0009A430A6080F31088EFF31080012181F3AE
:1038C000108821688A68520852008A6080F3108844
:1038D00020206860A860DDE72068C16902988843FD
:1038E00004D00020B842A2D00020D6E70120F9E79A
:1038F00010B5202000020030000201300002B83074
:10390000FEF757FB10BD00000FB410B503A9044B20
:10391000044A029800F03CF810BC08BC04B01847F8
:10392000713F0008200000208307FF22DB0E9A4031
:103930008907090E994000280BDB8308E02000046A
:10394000E4309B0000021B1818689043084318607D
:1039500070470007000F08388308E0200004ED30AE
:103960009B0000021B18D86990430843D861704738
:1039700002E008C8121F08C1002AFAD17047704738
:10398000002001E001C1121F002AFBD17047000096
:10399000FFB591B00F460546002606E025280AD05F
:1039A000149A139990476D1C761C28780028F5D13D
:1039B000304615B0F0BD002400940121F34A029472
:1039C00000E004436D1C2B780846203B98401042D1
:1039D000F7D128782A280ED00222287801463039DB
:1039E000092915D800990A2359433039401814433E
:1039F0006D1C0090F1E701CF0090002805DA01204E
:103A000040030443009840420090022004436D1C90
:103A100028782E2815D10420044368786D1C2A28A4
:103A20000AD101CF6D1C02900BE002990A2251438A
:103A3000303940186D1C0290287801463039092928
:103A4000F3D928786C2810D006DC4C281AD06828C6
:103A50000ED06A2817D104E0742813D07A2812D126
:103A600010E00120400504430CE00121090501E0BC
:103A7000032109050C436978814203D10120000527
:103A800024186D1C6D1C28786E281ED00CDC632851
:103A900031D004DC00288BD0582811D1B2E0642842
:103AA0007BD069280CD178E073282DD004DC6F28F6
:103AB00070D0702804D1A7E075286CD078286BD01E
:103AC000149A13999047761C62E06002400F022816
:103AD00007D003280AD0042838680AD006603F1DA2
:103AE00056E03868F11706604160F8E738680680EC
:103AF000F5E70670F3E738786946087400204874E3
:103B000004A80390012003E0386803900020C0431C
:103B10003F1D61070FD5002101E00199491C029A60
:103B20000191914213DA8142F7DB019A0399895C92
:103B30000029F2D10BE0002101E00199491C01911B
:103B40008142FADB019A0399895C0029F5D1019938
:103B50000098139A401A00902146149B00F03CF9FB
:103B600001998019461807E0039803990078491CC9
:103B70000391149A139990470198401E0190401C9C
:103B8000F2D12146149B139A009800F015F986197A
:103B90006D1C0AE741E033E034E00A200021049084
:103BA00005916002410F022905D001CFC21794464A
:103BB000032905D007E0FF1DFF08FF0003CF06E043
:103BC00000B2C2179446042902D140B2C1178C46F4
:103BD00000226146944506DA0A460021404291419E
:103BE0008C462D2102E0210504D52B216A46117651
:103BF000012103E0E10701D02021F7E7019155E021
:103C00000A200BE0102009E010200490002104207D
:103C1000044308200591029003E00820002105914B
:103C200004906002410F022905D001CF0022944682
:103C3000032906D006E0FF1DFF08FF0003CF8C46D6
:103C400003E080B2042900D1C0B200210191210714
:103C50002CD529780391702906D0049A1021059B50
:103C60004A401A4305D00EE040216A4611760121F0
:103C700008E06146014306D030216A461176039977
:103C8000517602210191049A0821059B4A401A436A
:103C90000CD16146014301D1610707D530216A4645
:103CA0001176012101910299491E02912978582922
:103CB00004D037A103910FA90F910DE039A1F9E7C5
:103CC0006146059B049AFCF72BFA039B8C469B5C90
:103CD0000F9A521E0F92137061460143F0D10F9854
:103CE00007A9081A20300390600704D501200004BA
:103CF0008443029801E0012002900399884201DD8B
:103D0000401A00E00020411802900198091800981C
:103D1000401A0090E00306D42146149B139A0098A1
:103D200000F05AF886190020049008E006A9085C03
:103D3000149A139990470498401C761C049001999A
:103D40008842F3DBE0030CD52146149B139A0098BC
:103D500000F042F8861904E0149A30201399904735
:103D6000761C0299481E02900029F5DC08E00F98A5
:103D70000F990078491C0F91149A13999047761C5B
:103D80000399481E03900029F1DCFAE60928010096
:103D900030313233343536373839616263646566C1
:103DA0000000000030313233343536373839414283
:103DB0004344454600000000F8B5044600251E4671
:103DC0001746880404D405E039462020B0476D1C0E
:103DD000641EF9D52846F8BDFFB50446002581B01C
:103DE0001E46C80301D5302700E02027880404D5EB
:103DF00005E038460399B0476D1C641EF9D5284686
:103E000005B0F0BD30B587B0142101A8FCF7D1F999
:103E1000402000020230000210300002426B0121FB
:103E20000A434263406B022408400090B02001AA7C
:103E300013C205252D0701A928460494FCF757FE57
:103E40000022B0212846FCF718FF00221021284646
:103E5000FCF713FF002220212846FCF70EFF00226A
:103E600080212846FCF709FF182000F003F92025DF
:103E70002D0200352D0200352D0200356860002826
:103E80002ED00470082109020031090242310902D2
:103E90006F3141600021816008210902003109026F
:103EA0003E310902F731C1600821090200310902DF
:103EB0003F310902A33101610821090200310902E1
:103EC0003F310902A73141610820000200300002A1
:103ED00044300002EC30FFF717FD686807B030BDD2
:103EE000082000020030000244300002D030FFF70A
:103EF0000BFD0020F2E7704770B50D46040036D088
:103F00002026360200363602003636020036707839
:103F1000002808D1052040210007FCF7A9FE002851
:103F200000D0012020702078317888421FD00028EE
:103F300002D0012819D10BE0002D01D00020A847A4
:103F40000820000200300002453000020C300AE078
:103F5000002D01D00120A8470820000200300002F7
:103F6000453000022830FFF7CFFC2078307070BD5C
:103F700013B50023DB4301226946202000020030F4
:103F80000002013000022830FEF726FA00981CBD1E
:103F900020200002003000020030000200304068A3
:103FA00070470020704720200002003000020030DF
:103FB000000200304068007870471CB5FDF7A3F898
:103FC000132000028830FCF78BFCFFF739F9FEF76D
:103FD00069FCFEF78CFDFEF743FDFEF700FDFEF7E2
:103FE000D5FDFEF71AFC00F07BF8FFF70BFF019000
:103FF000202000020030000200300002DC30FDF71B
:10400000FAFD002801D072B6FEE700F0A4F87D2585
:10401000ED005527DE240026F64300210198FFF726
:104020006BFF2846FCF75CFC2020000200300002F9
:10403000003000022C30FCF785FB684607703946DB
:104040004470082000020030000246300002943024
:10405000FFF75AFC33460122694620200002003057
:10406000000201300002B830FEF7B6F900F009F99D
:10407000D3E70000F0B50B30C108C900144F00268B
:10408000144A0FE003688B420BD38B4205D95C1AAC
:104090004318456830C3083B00E04368136002C022
:1040A00004E0021D10680028ECD13046002803D13E
:1040B0003868002801D00020F0BD064A064810608C
:1040C000064A121AD208D20044C001203860D7E74D
:1040D00028000020240000204C020020480400207A
:1040E00010B50820000200300002453000024830C0
:1040F000FFF70AFC082109020031090245310902D3
:1041000074310820000200300002453000027C308B
:10411000FFF7FAFB082212020032120245321202A5
:104120009432082109020031090245310902A03107
:10413000082000020030000245300002AC30FFF7DA
:10414000E3FB082000020030000245300002483046
:10415000FFF7DAFB10BD38B5002069460880044639
:10416000451E641CA4B269460C20FCF76DF8684635
:104170000088000664D53C20FCF7B2FB694630207D
:10418000FCF762F868460088C00520D5FEF722FDDE
:10419000002814D10820000200300002473000023D
:1041A000C430FFF7B1FB02210846FCF767F8002195
:1041B0001E20FCF763F80520FCF792FB10E00820B6
:1041C00000020030000247300002E03041E00820E9
:1041D00000020030000247300002F430FFF794FB89
:1041E000002469460220FCF72FF868460088022860
:1041F00024D0641CA4B269460C20FCF725F868465C
:10420000008800062DD53C20FCF76AFBFEF7E2FC97
:104210000028D4D1082000020030000247300002FC
:10422000C430FFF771FB02210846FCF727F8002194
:104230001E20FCF723F80520FCF752FB002038BDB8
:10424000142C0AD908200002003000024830000275
:104250001430FFF759FB284638BD1420FCF740FB0B
:104260007FE7142CEED81420FCF73AFBC1E720219D
:104270000902003109020031090200314968087061
:10428000704710B52020000200300002003000020C
:104290000830017800290DD16422027041784B1C4E
:1042A0004370082000020030000245300002C83090
:1042B000FFF72AFB10BD0000BC460008C8460008F6
:1042C000D4460008E0460008EC460008F84600081E
:1042D0000047000808470008104700081847000872
:1042E000204700082C4700083847000844470008CA
:1042F000000000000000000001004E00060802005F
:104300004E00044403004E0006B705004600054178
:1043100005004800040205004C002332060040005E
:1043200013880600420024820600440077AD060090
:10433000480012A306004A00526806004C00576469
:1043400006004E001E04070040001E130700420036
:1043500005040700440004040700460002020700A9
:104360004800010107004A00020207004C00020059
:1043700007004E0000FF08004000FDFA0800420060
:10438000FAFA08004400F9F908004600F4EF0800C2
:104390004800FAFA08004A00FAF808004C00F8E968
:1043A00008004E00D50000001300C044004B1A5610
:1043B000D3590D5C935CC65D4D5F2060D3606D6129
:1043C0003A62BA64CD66FA671A695A6AAD6B6D7063
:1043D00000191A0BDE0258022200400030003200A1
:1043E0004200530075007F0082007B0089008E0030
:1043F0006200E601130080FF000000029A048006BC
:104400004D0EE6171A289A300036B339333D4D4722
:10441000804F66549A581A5D006400690A001700BC
:1044200059006D006E07000450052705DB031503D6
:1044300030020502FA011602DE01CD019B0287005F
:104440003DFF000000000000010002000400060023
:1044500008000A000C00100020004000800000014D
:104460000101010307010000080402040801010121
:10447000000000000000000000000000000000003C
:10448000000000000000000000000000000000002C
:104490000100000002000000030000000400000012
:1044A00006000000070000000800000009000000EE
:1044B00000000000000000000000000000000000FC
:1044C00001000000020000000300000004000000E2
:1044D0004D415837373738373A6D616C6C6F632010
:1044E0006661696C642121210D0A00004D41583735
:1044F000373738373A6368617267657220696E6969
:104500007420737563636573730D0A004D415837EA
:10451000373738373A54595045435F49535F455808
:104520004953540D0A0000004D415837373738378A
:104530003A54595045435F49535F4E4F545F455875
:104540004953540D0A0000002A2A2A2A2A2A2A2A14
:104550002A2A2A2A2A2A2A2A2A2A2A2A2A2A2A2ABB
:104560002A2A2A2A2A2A2A2A2A2A2A2A2A2A2A2AAB
:104570002A0D0A0056312E302E3000004669726D29
:10458000776172652056657273696F6E3A20257384
:104590000D0A000031313A33303A34360000000061
:1045A0004D6172203130203230323500436F6D70F2
:1045B000696C6520446174653A2025732054696DE7
:1045C000653A2025730D0A004D43553A2564207441
:1045D000696D65722E74696D655F317325640D0AAE
:1045E000000000004750494F5F50494E5F34205251
:1045F0006973696E670D0A004750494F5F50494E15
:104600005F3620526973696E670D0A004750494F43
:104610005F50494E5F3820526973696E670D0A001A
:10462000556E6B6F776E20526973696E670D0A0065
:104630004750494F5F50494E5F342046616C6C696A
:104640006E670D0A000000004750494F5F50494E09
:104650005F362046616C6C696E670D0A00000000D1
:104660004750494F5F50494E5F382046616C6C6936
:104670006E670D0A00000000556E6B6F776E204666
:10468000616C6C696E670D0A00000000523A2530BB
:1046900032780000756172742073656E643D307805
:1046A000253032780D0A0000486172644661756CED
:1046B000745F48616E646C65720D0A00537973749F
:1046C000656D5F54696D65005245475F56424154C0
:1046D000000000005245475F435552520000000061
:1046E0005245475F54454D50000000005245475F1A
:1046F000494E5454000000005245475F534F430059
:104700005245475F524D00005245475F534F4800A6
:104710005245475F444300005245475F46434300CC
:104720005245475F464C4147310000005245475FC4
:10473000464C4147320000005245475F464C4147D6
:10474000330000005245475F4952510025733A201B
:104750003078253034780D0A000000005254393486
:1047600032365F556E7365616C5F506173730D0A0D
:10477000000000005254393432365F556E73656163
:104780006C5F4661696C0D0A0000000052543934B8
:1047900032365F4F43565F53657474696E675F507E
:1047A0006173730D0A0000005254393432365F4F82
:1047B00043565F53657474696E675F4661696C0D3B
:1047C0000A0000005254393432365F696E69745FF2
:1047D0007375636365737366756C0D0A0000000082
:1047E0005254393432365F696E69745F6661696C40
:1047F0000D0A00004E6F5F4E6565645F746F5F72F7
:1048000065696E6974696C5F5254393432360D0AC9
:10481000000000005254393432365F696E69745FAB
:104820006572726F720D0A000A20525439343236A2
:104830005F5245475F464C414733203D2025303489
:10484000780D0D0A000000005254393432362045EC
:104850006E7465722053687574646F776E2046615C
:10486000696C0A0D0A00000088480008000000205A
:104870002C00000070390008B44800082C0000200B
:104880001C08000080390008020000000000000041
:1048900000000000785634120100000004000000FF
:1048A000000000000024F4000000000000000000F0
:0448B0000000000004
:04000005080000C12E
:00000001FF
